{
    "contractName": "Card",
    "abi": [
        {
            "inputs": [
                {
                    "internalType": "uint256",
                    "name": "depositFee",
                    "type": "uint256"
                },
                {
                    "internalType": "address",
                    "name": "usdcAddress",
                    "type": "address"
                },
                {
                    "internalType": "uint256",
                    "name": "minAmount",
                    "type": "uint256"
                }
            ],
            "stateMutability": "nonpayable",
            "type": "constructor"
        },
        {
            "inputs": [],
            "name": "NFTDepositContract__InsufficientBalance",
            "type": "error"
        },
        {
            "inputs": [],
            "name": "NFTDepositContract__NotOwner",
            "type": "error"
        },
        {
            "anonymous": false,
            "inputs": [
                {
                    "indexed": true,
                    "internalType": "address",
                    "name": "owner",
                    "type": "address"
                },
                {
                    "indexed": true,
                    "internalType": "address",
                    "name": "approved",
                    "type": "address"
                },
                {
                    "indexed": true,
                    "internalType": "uint256",
                    "name": "tokenId",
                    "type": "uint256"
                }
            ],
            "name": "Approval",
            "type": "event"
        },
        {
            "anonymous": false,
            "inputs": [
                {
                    "indexed": true,
                    "internalType": "address",
                    "name": "owner",
                    "type": "address"
                },
                {
                    "indexed": true,
                    "internalType": "address",
                    "name": "operator",
                    "type": "address"
                },
                {
                    "indexed": false,
                    "internalType": "bool",
                    "name": "approved",
                    "type": "bool"
                }
            ],
            "name": "ApprovalForAll",
            "type": "event"
        },
        {
            "anonymous": false,
            "inputs": [
                {
                    "indexed": true,
                    "internalType": "uint256",
                    "name": "fee",
                    "type": "uint256"
                }
            ],
            "name": "DepositFeeSet",
            "type": "event"
        },
        {
            "anonymous": false,
            "inputs": [
                {
                    "indexed": true,
                    "internalType": "address",
                    "name": "from",
                    "type": "address"
                },
                {
                    "indexed": true,
                    "internalType": "address",
                    "name": "to",
                    "type": "address"
                },
                {
                    "indexed": true,
                    "internalType": "uint256",
                    "name": "tokenId",
                    "type": "uint256"
                }
            ],
            "name": "Transfer",
            "type": "event"
        },
        {
            "anonymous": false,
            "inputs": [
                {
                    "indexed": true,
                    "internalType": "uint256",
                    "name": "fromTokenId",
                    "type": "uint256"
                },
                {
                    "indexed": false,
                    "internalType": "address",
                    "name": "recipient",
                    "type": "address"
                },
                {
                    "indexed": false,
                    "internalType": "uint256",
                    "name": "amount",
                    "type": "uint256"
                }
            ],
            "name": "ValueSent",
            "type": "event"
        },
        {
            "inputs": [],
            "name": "TOKEN_URI",
            "outputs": [
                {
                    "internalType": "string",
                    "name": "",
                    "type": "string"
                }
            ],
            "stateMutability": "view",
            "type": "function"
        },
        {
            "inputs": [
                {
                    "internalType": "address",
                    "name": "to",
                    "type": "address"
                },
                {
                    "internalType": "uint256",
                    "name": "tokenId",
                    "type": "uint256"
                }
            ],
            "name": "approve",
            "outputs": [],
            "stateMutability": "nonpayable",
            "type": "function"
        },
        {
            "inputs": [
                {
                    "internalType": "address",
                    "name": "owner",
                    "type": "address"
                }
            ],
            "name": "balanceOf",
            "outputs": [
                {
                    "internalType": "uint256",
                    "name": "",
                    "type": "uint256"
                }
            ],
            "stateMutability": "view",
            "type": "function"
        },
        {
            "inputs": [
                {
                    "internalType": "uint256",
                    "name": "tokenId",
                    "type": "uint256"
                }
            ],
            "name": "getApproved",
            "outputs": [
                {
                    "internalType": "address",
                    "name": "",
                    "type": "address"
                }
            ],
            "stateMutability": "view",
            "type": "function"
        },
        {
            "inputs": [],
            "name": "getDepositFee",
            "outputs": [
                {
                    "internalType": "uint256",
                    "name": "",
                    "type": "uint256"
                }
            ],
            "stateMutability": "view",
            "type": "function"
        },
        {
            "inputs": [],
            "name": "getFeesGenerated",
            "outputs": [
                {
                    "internalType": "uint256",
                    "name": "",
                    "type": "uint256"
                }
            ],
            "stateMutability": "view",
            "type": "function"
        },
        {
            "inputs": [
                {
                    "internalType": "uint256",
                    "name": "tokenId",
                    "type": "uint256"
                }
            ],
            "name": "getTokenBalance",
            "outputs": [
                {
                    "internalType": "uint256",
                    "name": "",
                    "type": "uint256"
                }
            ],
            "stateMutability": "view",
            "type": "function"
        },
        {
            "inputs": [],
            "name": "getTokenCounter",
            "outputs": [
                {
                    "internalType": "uint256",
                    "name": "",
                    "type": "uint256"
                }
            ],
            "stateMutability": "view",
            "type": "function"
        },
        {
            "inputs": [
                {
                    "internalType": "address",
                    "name": "owner",
                    "type": "address"
                },
                {
                    "internalType": "address",
                    "name": "operator",
                    "type": "address"
                }
            ],
            "name": "isApprovedForAll",
            "outputs": [
                {
                    "internalType": "bool",
                    "name": "",
                    "type": "bool"
                }
            ],
            "stateMutability": "view",
            "type": "function"
        },
        {
            "inputs": [
                {
                    "internalType": "address",
                    "name": "to",
                    "type": "address"
                }
            ],
            "name": "mint",
            "outputs": [],
            "stateMutability": "payable",
            "type": "function"
        },
        {
            "inputs": [],
            "name": "name",
            "outputs": [
                {
                    "internalType": "string",
                    "name": "",
                    "type": "string"
                }
            ],
            "stateMutability": "view",
            "type": "function"
        },
        {
            "inputs": [
                {
                    "internalType": "uint256",
                    "name": "tokenId",
                    "type": "uint256"
                }
            ],
            "name": "ownerOf",
            "outputs": [
                {
                    "internalType": "address",
                    "name": "",
                    "type": "address"
                }
            ],
            "stateMutability": "view",
            "type": "function"
        },
        {
            "inputs": [
                {
                    "internalType": "uint256",
                    "name": "",
                    "type": "uint256"
                }
            ],
            "name": "s_tokenIdToBalance",
            "outputs": [
                {
                    "internalType": "uint256",
                    "name": "",
                    "type": "uint256"
                }
            ],
            "stateMutability": "view",
            "type": "function"
        },
        {
            "inputs": [
                {
                    "internalType": "address",
                    "name": "from",
                    "type": "address"
                },
                {
                    "internalType": "address",
                    "name": "to",
                    "type": "address"
                },
                {
                    "internalType": "uint256",
                    "name": "tokenId",
                    "type": "uint256"
                }
            ],
            "name": "safeTransferFrom",
            "outputs": [],
            "stateMutability": "nonpayable",
            "type": "function"
        },
        {
            "inputs": [
                {
                    "internalType": "address",
                    "name": "from",
                    "type": "address"
                },
                {
                    "internalType": "address",
                    "name": "to",
                    "type": "address"
                },
                {
                    "internalType": "uint256",
                    "name": "tokenId",
                    "type": "uint256"
                },
                {
                    "internalType": "bytes",
                    "name": "data",
                    "type": "bytes"
                }
            ],
            "name": "safeTransferFrom",
            "outputs": [],
            "stateMutability": "nonpayable",
            "type": "function"
        },
        {
            "inputs": [
                {
                    "internalType": "uint256",
                    "name": "amount",
                    "type": "uint256"
                },
                {
                    "internalType": "address",
                    "name": "recipient",
                    "type": "address"
                },
                {
                    "internalType": "uint256",
                    "name": "tokenId",
                    "type": "uint256"
                }
            ],
            "name": "sendValue",
            "outputs": [],
            "stateMutability": "nonpayable",
            "type": "function"
        },
        {
            "inputs": [
                {
                    "internalType": "address",
                    "name": "operator",
                    "type": "address"
                },
                {
                    "internalType": "bool",
                    "name": "approved",
                    "type": "bool"
                }
            ],
            "name": "setApprovalForAll",
            "outputs": [],
            "stateMutability": "nonpayable",
            "type": "function"
        },
        {
            "inputs": [
                {
                    "internalType": "uint256",
                    "name": "depositFee",
                    "type": "uint256"
                }
            ],
            "name": "setDepositFee",
            "outputs": [],
            "stateMutability": "nonpayable",
            "type": "function"
        },
        {
            "inputs": [
                {
                    "internalType": "bytes4",
                    "name": "interfaceId",
                    "type": "bytes4"
                }
            ],
            "name": "supportsInterface",
            "outputs": [
                {
                    "internalType": "bool",
                    "name": "",
                    "type": "bool"
                }
            ],
            "stateMutability": "view",
            "type": "function"
        },
        {
            "inputs": [],
            "name": "symbol",
            "outputs": [
                {
                    "internalType": "string",
                    "name": "",
                    "type": "string"
                }
            ],
            "stateMutability": "view",
            "type": "function"
        },
        {
            "inputs": [
                {
                    "internalType": "uint256",
                    "name": "tokenId",
                    "type": "uint256"
                }
            ],
            "name": "tokenURI",
            "outputs": [
                {
                    "internalType": "string",
                    "name": "",
                    "type": "string"
                }
            ],
            "stateMutability": "view",
            "type": "function"
        },
        {
            "inputs": [
                {
                    "internalType": "address",
                    "name": "from",
                    "type": "address"
                },
                {
                    "internalType": "address",
                    "name": "to",
                    "type": "address"
                },
                {
                    "internalType": "uint256",
                    "name": "tokenId",
                    "type": "uint256"
                }
            ],
            "name": "transferFrom",
            "outputs": [],
            "stateMutability": "nonpayable",
            "type": "function"
        },
        {
            "inputs": [],
            "name": "withdrawFees",
            "outputs": [],
            "stateMutability": "nonpayable",
            "type": "function"
        }
    ],
    "bytecode": "60e060405260646009553480156200001657600080fd5b5060405162001c6b38038062001c6b8339810160408190526200003991620000c3565b6040518060400160405280600d81526020016c115d1a195c99585b0810d85c99609a1b8152506040518060400160405280600481526020016310d0549160e21b81525081600090816200008d9190620001b0565b5060016200009c8282620001b0565b50506000600655506007929092556001600160a01b031660c0526080523360a0526200027c565b600080600060608486031215620000d957600080fd5b835160208501519093506001600160a01b0381168114620000f957600080fd5b80925050604084015190509250925092565b634e487b7160e01b600052604160045260246000fd5b600181811c908216806200013657607f821691505b6020821081036200015757634e487b7160e01b600052602260045260246000fd5b50919050565b601f821115620001ab57600081815260208120601f850160051c81016020861015620001865750805b601f850160051c820191505b81811015620001a75782815560010162000192565b5050505b505050565b81516001600160401b03811115620001cc57620001cc6200010b565b620001e481620001dd845462000121565b846200015d565b602080601f8311600181146200021c5760008415620002035750858301515b600019600386901b1c1916600185901b178555620001a7565b600085815260208120601f198616915b828110156200024d578886015182559484019460019091019084016200022c565b50858210156200026c5787850151600019600388901b60f8161c191681555b5050505050600190811b01905550565b60805160a05160c0516119a6620002c56000396000818161074b015281816109600152610a6f0152600081816106a7015281816107e901526108650152600050506119a66000f3fe6080604052600436106101405760003560e01c80636a627842116100b657806395d89b411161006f57806395d89b4114610381578063a22cb46514610396578063b88d4fde146103b6578063c87b56dd146103d6578063e125232e146103f6578063e985e9c51461040b57600080fd5b80636a627842146102ca5780636e02007d146102dd57806370a08231146102f257806378ce903514610312578063864ec294146103275780639105d7481461035457600080fd5b806323b872dd1161010857806323b872dd1461021557806342842e0e14610235578063476343ee14610255578063490ae2101461026a57806356b6a9921461028a5780636352211e146102aa57600080fd5b806301ffc9a71461014557806306fdde031461017a578063081812fc1461019c578063095ea7b3146101d45780630de705b5146101f6575b600080fd5b34801561015157600080fd5b50610165610160366004611458565b61042b565b60405190151581526020015b60405180910390f35b34801561018657600080fd5b5061018f61047d565b60405161017191906114c2565b3480156101a857600080fd5b506101bc6101b73660046114d5565b61050f565b6040516001600160a01b039091168152602001610171565b3480156101e057600080fd5b506101f46101ef36600461150a565b610536565b005b34801561020257600080fd5b506007545b604051908152602001610171565b34801561022157600080fd5b506101f4610230366004611534565b610650565b34801561024157600080fd5b506101f4610250366004611534565b610681565b34801561026157600080fd5b506101f461069c565b34801561027657600080fd5b506101f46102853660046114d5565b6107de565b34801561029657600080fd5b506101f46102a5366004611570565b61085a565b3480156102b657600080fd5b506101bc6102c53660046114d5565b6109e9565b6101f46102d8366004611595565b610a49565b3480156102e957600080fd5b50600654610207565b3480156102fe57600080fd5b5061020761030d366004611595565b610b6e565b34801561031e57600080fd5b5061018f610bf4565b34801561033357600080fd5b506102076103423660046114d5565b600a6020526000908152604090205481565b34801561036057600080fd5b5061020761036f3660046114d5565b6000908152600a602052604090205490565b34801561038d57600080fd5b5061018f610c10565b3480156103a257600080fd5b506101f46103b13660046115be565b610c1f565b3480156103c257600080fd5b506101f46103d136600461160b565b610c2e565b3480156103e257600080fd5b5061018f6103f13660046114d5565b610c66565b34801561040257600080fd5b50600854610207565b34801561041757600080fd5b506101656104263660046116e7565b610d04565b60006001600160e01b031982166380ac58cd60e01b148061045c57506001600160e01b03198216635b5e139f60e01b145b8061047757506301ffc9a760e01b6001600160e01b03198316145b92915050565b60606000805461048c9061171a565b80601f01602080910402602001604051908101604052809291908181526020018280546104b89061171a565b80156105055780601f106104da57610100808354040283529160200191610505565b820191906000526020600020905b8154815290600101906020018083116104e857829003601f168201915b5050505050905090565b600061051a82610d32565b506000908152600460205260409020546001600160a01b031690565b6000610541826109e9565b9050806001600160a01b0316836001600160a01b0316036105b35760405162461bcd60e51b815260206004820152602160248201527f4552433732313a20617070726f76616c20746f2063757272656e74206f776e656044820152603960f91b60648201526084015b60405180910390fd5b336001600160a01b03821614806105cf57506105cf8133610d04565b6106415760405162461bcd60e51b815260206004820152603d60248201527f4552433732313a20617070726f76652063616c6c6572206973206e6f7420746f60448201527f6b656e206f776e6572206f7220617070726f76656420666f7220616c6c00000060648201526084016105aa565b61064b8383610d94565b505050565b61065a3382610e02565b6106765760405162461bcd60e51b81526004016105aa90611754565b61064b838383610e61565b61064b83838360405180602001604052806000815250610c2e565b336001600160a01b037f000000000000000000000000000000000000000000000000000000000000000016146106e55760405163074855df60e11b815260040160405180910390fd5b60006008541161072b5760405162461bcd60e51b8152602060048201526011602482015270139bc81199595cc811d95b995c985d1959607a1b60448201526064016105aa565b60085460405163a9059cbb60e01b815233600482015260248101919091527f00000000000000000000000000000000000000000000000000000000000000006001600160a01b03169063a9059cbb906044016020604051808303816000875af115801561079c573d6000803e3d6000fd5b505050506040513d601f19601f820116820180604052508101906107c091906117a1565b6107dc5760405162461bcd60e51b81526004016105aa906117be565b565b336001600160a01b037f000000000000000000000000000000000000000000000000000000000000000016146108275760405163074855df60e11b815260040160405180910390fd5b600781905560405181907f12865465a7036a0232cbf9fb63ce880a3ee54f702775fe7abbc3c416e7968cd590600090a250565b336001600160a01b037f000000000000000000000000000000000000000000000000000000000000000016146108a35760405163074855df60e11b815260040160405180910390fd5b600083116108e85760405162461bcd60e51b815260206004820152601260248201527153656e642056616c756520546f6f204c6f7760701b60448201526064016105aa565b6000818152600a60205260409020548311156109175760405163bc6d4aff60e01b815260040160405180910390fd5b6000818152600a602052604081208054859290610935908490611802565b909155505060405163a9059cbb60e01b81526001600160a01b038381166004830152602482018590527f0000000000000000000000000000000000000000000000000000000000000000169063a9059cbb906044016020604051808303816000875af11580156109a9573d6000803e3d6000fd5b505050506040513d601f19601f820116820180604052508101906109cd91906117a1565b61064b5760405162461bcd60e51b81526004016105aa906117be565b6000818152600260205260408120546001600160a01b0316806104775760405162461bcd60e51b8152602060048201526018602482015277115490cdcc8c4e881a5b9d985b1a59081d1bdad95b88125160421b60448201526064016105aa565b6009546040516323b872dd60e01b815233600482015230602482015260448101919091527f00000000000000000000000000000000000000000000000000000000000000006001600160a01b0316906323b872dd906064016020604051808303816000875af1158015610ac0573d6000803e3d6000fd5b505050506040513d601f19601f82011682018060405250810190610ae491906117a1565b610b005760405162461bcd60e51b81526004016105aa906117be565b610b0c81600654610fd2565b6000600754600954610b1e9190611815565b90508060086000828254610b329190611837565b9091555050600954610b45908290611802565b600680546000908152600a602052604090209190915554610b67906001611837565b6006555050565b60006001600160a01b038216610bd85760405162461bcd60e51b815260206004820152602960248201527f4552433732313a2061646472657373207a65726f206973206e6f7420612076616044820152683634b21037bbb732b960b91b60648201526084016105aa565b506001600160a01b031660009081526003602052604090205490565b60405180606001604052806035815260200161193c6035913981565b60606001805461048c9061171a565b610c2a338383610fec565b5050565b610c383383610e02565b610c545760405162461bcd60e51b81526004016105aa90611754565b610c60848484846110ba565b50505050565b6000818152600260205260409020546060906001600160a01b0316610ce55760405162461bcd60e51b815260206004820152602f60248201527f4552433732314d657461646174613a2055524920717565727920666f72206e6f60448201526e3732bc34b9ba32b73a103a37b5b2b760891b60648201526084016105aa565b60405180606001604052806035815260200161193c6035913992915050565b6001600160a01b03918216600090815260056020908152604080832093909416825291909152205460ff1690565b6000818152600260205260409020546001600160a01b0316610d915760405162461bcd60e51b8152602060048201526018602482015277115490cdcc8c4e881a5b9d985b1a59081d1bdad95b88125160421b60448201526064016105aa565b50565b600081815260046020526040902080546001600160a01b0319166001600160a01b0384169081179091558190610dc9826109e9565b6001600160a01b03167f8c5be1e5ebec7d5bd14f71427d1e84f3dd0314c0f7b2291e5b200ac8c7c3b92560405160405180910390a45050565b600080610e0e836109e9565b9050806001600160a01b0316846001600160a01b03161480610e355750610e358185610d04565b80610e595750836001600160a01b0316610e4e8461050f565b6001600160a01b0316145b949350505050565b826001600160a01b0316610e74826109e9565b6001600160a01b031614610e9a5760405162461bcd60e51b81526004016105aa9061184a565b6001600160a01b038216610efc5760405162461bcd60e51b8152602060048201526024808201527f4552433732313a207472616e7366657220746f20746865207a65726f206164646044820152637265737360e01b60648201526084016105aa565b610f0983838360016110ed565b826001600160a01b0316610f1c826109e9565b6001600160a01b031614610f425760405162461bcd60e51b81526004016105aa9061184a565b600081815260046020908152604080832080546001600160a01b03199081169091556001600160a01b0387811680865260038552838620805460001901905590871680865283862080546001019055868652600290945282852080549092168417909155905184937fddf252ad1be2c89b69c2b068fc378daa952ba7f163c4a11628f55a4df523b3ef91a4505050565b610c2a828260405180602001604052806000815250611175565b816001600160a01b0316836001600160a01b03160361104d5760405162461bcd60e51b815260206004820152601960248201527f4552433732313a20617070726f766520746f2063616c6c65720000000000000060448201526064016105aa565b6001600160a01b03838116600081815260056020908152604080832094871680845294825291829020805460ff191686151590811790915591519182527f17307eab39ab6107e8899845ad3d59bd9653f200f220920489ca2b5937696c31910160405180910390a3505050565b6110c5848484610e61565b6110d1848484846111a8565b610c605760405162461bcd60e51b81526004016105aa9061188f565b6001811115610c60576001600160a01b03841615611133576001600160a01b0384166000908152600360205260408120805483929061112d908490611802565b90915550505b6001600160a01b03831615610c60576001600160a01b0383166000908152600360205260408120805483929061116a908490611837565b909155505050505050565b61117f83836112a9565b61118c60008484846111a8565b61064b5760405162461bcd60e51b81526004016105aa9061188f565b60006001600160a01b0384163b1561129e57604051630a85bd0160e11b81526001600160a01b0385169063150b7a02906111ec9033908990889088906004016118e1565b6020604051808303816000875af1925050508015611227575060408051601f3d908101601f191682019092526112249181019061191e565b60015b611284573d808015611255576040519150601f19603f3d011682016040523d82523d6000602084013e61125a565b606091505b50805160000361127c5760405162461bcd60e51b81526004016105aa9061188f565b805181602001fd5b6001600160e01b031916630a85bd0160e11b149050610e59565b506001949350505050565b6001600160a01b0382166112ff5760405162461bcd60e51b815260206004820181905260248201527f4552433732313a206d696e7420746f20746865207a65726f206164647265737360448201526064016105aa565b6000818152600260205260409020546001600160a01b0316156113645760405162461bcd60e51b815260206004820152601c60248201527f4552433732313a20746f6b656e20616c7265616479206d696e7465640000000060448201526064016105aa565b6113726000838360016110ed565b6000818152600260205260409020546001600160a01b0316156113d75760405162461bcd60e51b815260206004820152601c60248201527f4552433732313a20746f6b656e20616c7265616479206d696e7465640000000060448201526064016105aa565b6001600160a01b038216600081815260036020908152604080832080546001019055848352600290915280822080546001600160a01b0319168417905551839291907fddf252ad1be2c89b69c2b068fc378daa952ba7f163c4a11628f55a4df523b3ef908290a45050565b6001600160e01b031981168114610d9157600080fd5b60006020828403121561146a57600080fd5b813561147581611442565b9392505050565b6000815180845260005b818110156114a257602081850181015186830182015201611486565b506000602082860101526020601f19601f83011685010191505092915050565b602081526000611475602083018461147c565b6000602082840312156114e757600080fd5b5035919050565b80356001600160a01b038116811461150557600080fd5b919050565b6000806040838503121561151d57600080fd5b611526836114ee565b946020939093013593505050565b60008060006060848603121561154957600080fd5b611552846114ee565b9250611560602085016114ee565b9150604084013590509250925092565b60008060006060848603121561158557600080fd5b83359250611560602085016114ee565b6000602082840312156115a757600080fd5b611475826114ee565b8015158114610d9157600080fd5b600080604083850312156115d157600080fd5b6115da836114ee565b915060208301356115ea816115b0565b809150509250929050565b634e487b7160e01b600052604160045260246000fd5b6000806000806080858703121561162157600080fd5b61162a856114ee565b9350611638602086016114ee565b925060408501359150606085013567ffffffffffffffff8082111561165c57600080fd5b818701915087601f83011261167057600080fd5b813581811115611682576116826115f5565b604051601f8201601f19908116603f011681019083821181831017156116aa576116aa6115f5565b816040528281528a60208487010111156116c357600080fd5b82602086016020830137600060208483010152809550505050505092959194509250565b600080604083850312156116fa57600080fd5b611703836114ee565b9150611711602084016114ee565b90509250929050565b600181811c9082168061172e57607f821691505b60208210810361174e57634e487b7160e01b600052602260045260246000fd5b50919050565b6020808252602d908201527f4552433732313a2063616c6c6572206973206e6f7420746f6b656e206f776e6560408201526c1c881bdc88185c1c1c9bdd9959609a1b606082015260800190565b6000602082840312156117b357600080fd5b8151611475816115b0565b6020808252601490820152731554d110c81d1c985b9cd9995c8819985a5b195960621b604082015260600190565b634e487b7160e01b600052601160045260246000fd5b81810381811115610477576104776117ec565b60008261183257634e487b7160e01b600052601260045260246000fd5b500490565b80820180821115610477576104776117ec565b60208082526025908201527f4552433732313a207472616e736665722066726f6d20696e636f72726563742060408201526437bbb732b960d91b606082015260800190565b60208082526032908201527f4552433732313a207472616e7366657220746f206e6f6e20455243373231526560408201527131b2b4bb32b91034b6b83632b6b2b73a32b960711b606082015260800190565b6001600160a01b03858116825284166020820152604081018390526080606082018190526000906119149083018461147c565b9695505050505050565b60006020828403121561193057600080fd5b81516114758161144256fe697066733a2f2f516d4e614c463141586771317a6d42416569706f5673525736626377347738616178397473464a62626763314369a2646970667358221220a223c3e51904cf98847c02f0669332a249a86fbc030cbb216d4c60ff4a7d9c5964736f6c63430008130033",
    "sourcePath": "/Users/michael/Desktop/programs/learn_solidity/hardhat-nft/contracts/CardNft.sol",
    "compiler": {
        "name": "solc",
        "version": "0.8.19+commit.7dd6d404"
    },
    "functionHashes": {
        "TOKEN_URI()": "78ce9035",
        "approve(address,uint256)": "095ea7b3",
        "balanceOf(address)": "70a08231",
        "getApproved(uint256)": "081812fc",
        "getDepositFee()": "0de705b5",
        "getFeesGenerated()": "e125232e",
        "getTokenBalance(uint256)": "9105d748",
        "getTokenCounter()": "6e02007d",
        "isApprovedForAll(address,address)": "e985e9c5",
        "mint(address)": "6a627842",
        "name()": "06fdde03",
        "ownerOf(uint256)": "6352211e",
        "s_tokenIdToBalance(uint256)": "864ec294",
        "safeTransferFrom(address,address,uint256)": "42842e0e",
        "safeTransferFrom(address,address,uint256,bytes)": "b88d4fde",
        "sendValue(uint256,address,uint256)": "56b6a992",
        "setApprovalForAll(address,bool)": "a22cb465",
        "setDepositFee(uint256)": "490ae210",
        "supportsInterface(bytes4)": "01ffc9a7",
        "symbol()": "95d89b41",
        "tokenURI(uint256)": "c87b56dd",
        "transferFrom(address,address,uint256)": "23b872dd",
        "withdrawFees()": "476343ee"
    },
    "gasEstimates": {
        "creation": {
            "codeDepositCost": "1313200",
            "executionCost": "infinite",
            "totalCost": "infinite"
        },
        "external": {
            "TOKEN_URI()": "infinite",
            "approve(address,uint256)": "infinite",
            "balanceOf(address)": "2656",
            "getApproved(uint256)": "4792",
            "getDepositFee()": "2393",
            "getFeesGenerated()": "2402",
            "getTokenBalance(uint256)": "2571",
            "getTokenCounter()": "2337",
            "isApprovedForAll(address,address)": "infinite",
            "mint(address)": "infinite",
            "name()": "infinite",
            "ownerOf(uint256)": "2671",
            "s_tokenIdToBalance(uint256)": "2549",
            "safeTransferFrom(address,address,uint256)": "infinite",
            "safeTransferFrom(address,address,uint256,bytes)": "infinite",
            "sendValue(uint256,address,uint256)": "infinite",
            "setApprovalForAll(address,bool)": "26756",
            "setDepositFee(uint256)": "infinite",
            "supportsInterface(bytes4)": "534",
            "symbol()": "infinite",
            "tokenURI(uint256)": "infinite",
            "transferFrom(address,address,uint256)": "infinite",
            "withdrawFees()": "infinite"
        }
    }
}