{
    "contractName": "NFTDepositContract",
    "abi": [
        {
            "inputs": [
                {
                    "internalType": "uint256",
                    "name": "depositFee",
                    "type": "uint256"
                },
                {
                    "internalType": "address",
                    "name": "usdcAddress",
                    "type": "address"
                },
                {
                    "internalType": "uint256",
                    "name": "minAmount",
                    "type": "uint256"
                }
            ],
            "stateMutability": "nonpayable",
            "type": "constructor"
        },
        {
            "inputs": [],
            "name": "NFTDepositContract__InsufficientBalance",
            "type": "error"
        },
        {
            "inputs": [],
            "name": "NFTDepositContract__NotOwner",
            "type": "error"
        },
        {
            "anonymous": false,
            "inputs": [
                {
                    "indexed": true,
                    "internalType": "address",
                    "name": "owner",
                    "type": "address"
                },
                {
                    "indexed": true,
                    "internalType": "address",
                    "name": "approved",
                    "type": "address"
                },
                {
                    "indexed": true,
                    "internalType": "uint256",
                    "name": "tokenId",
                    "type": "uint256"
                }
            ],
            "name": "Approval",
            "type": "event"
        },
        {
            "anonymous": false,
            "inputs": [
                {
                    "indexed": true,
                    "internalType": "address",
                    "name": "owner",
                    "type": "address"
                },
                {
                    "indexed": true,
                    "internalType": "address",
                    "name": "operator",
                    "type": "address"
                },
                {
                    "indexed": false,
                    "internalType": "bool",
                    "name": "approved",
                    "type": "bool"
                }
            ],
            "name": "ApprovalForAll",
            "type": "event"
        },
        {
            "anonymous": false,
            "inputs": [
                {
                    "indexed": true,
                    "internalType": "uint256",
                    "name": "fee",
                    "type": "uint256"
                }
            ],
            "name": "DepositFeeSet",
            "type": "event"
        },
        {
            "anonymous": false,
            "inputs": [
                {
                    "indexed": true,
                    "internalType": "address",
                    "name": "from",
                    "type": "address"
                },
                {
                    "indexed": true,
                    "internalType": "address",
                    "name": "to",
                    "type": "address"
                },
                {
                    "indexed": true,
                    "internalType": "uint256",
                    "name": "tokenId",
                    "type": "uint256"
                }
            ],
            "name": "Transfer",
            "type": "event"
        },
        {
            "anonymous": false,
            "inputs": [
                {
                    "indexed": true,
                    "internalType": "uint256",
                    "name": "fromTokenId",
                    "type": "uint256"
                },
                {
                    "indexed": false,
                    "internalType": "address",
                    "name": "recipient",
                    "type": "address"
                },
                {
                    "indexed": false,
                    "internalType": "uint256",
                    "name": "amount",
                    "type": "uint256"
                }
            ],
            "name": "ValueSent",
            "type": "event"
        },
        {
            "inputs": [],
            "name": "TOKEN_URI",
            "outputs": [
                {
                    "internalType": "string",
                    "name": "",
                    "type": "string"
                }
            ],
            "stateMutability": "view",
            "type": "function"
        },
        {
            "inputs": [
                {
                    "internalType": "address",
                    "name": "to",
                    "type": "address"
                },
                {
                    "internalType": "uint256",
                    "name": "tokenId",
                    "type": "uint256"
                }
            ],
            "name": "approve",
            "outputs": [],
            "stateMutability": "nonpayable",
            "type": "function"
        },
        {
            "inputs": [
                {
                    "internalType": "address",
                    "name": "owner",
                    "type": "address"
                }
            ],
            "name": "balanceOf",
            "outputs": [
                {
                    "internalType": "uint256",
                    "name": "",
                    "type": "uint256"
                }
            ],
            "stateMutability": "view",
            "type": "function"
        },
        {
            "inputs": [
                {
                    "internalType": "uint256",
                    "name": "tokenId",
                    "type": "uint256"
                }
            ],
            "name": "getApproved",
            "outputs": [
                {
                    "internalType": "address",
                    "name": "",
                    "type": "address"
                }
            ],
            "stateMutability": "view",
            "type": "function"
        },
        {
            "inputs": [],
            "name": "getDepositFee",
            "outputs": [
                {
                    "internalType": "uint256",
                    "name": "",
                    "type": "uint256"
                }
            ],
            "stateMutability": "view",
            "type": "function"
        },
        {
            "inputs": [],
            "name": "getFeesGenerated",
            "outputs": [
                {
                    "internalType": "uint256",
                    "name": "",
                    "type": "uint256"
                }
            ],
            "stateMutability": "view",
            "type": "function"
        },
        {
            "inputs": [
                {
                    "internalType": "uint256",
                    "name": "tokenId",
                    "type": "uint256"
                }
            ],
            "name": "getTokenBalance",
            "outputs": [
                {
                    "internalType": "uint256",
                    "name": "",
                    "type": "uint256"
                }
            ],
            "stateMutability": "view",
            "type": "function"
        },
        {
            "inputs": [],
            "name": "getTokenCounter",
            "outputs": [
                {
                    "internalType": "uint256",
                    "name": "",
                    "type": "uint256"
                }
            ],
            "stateMutability": "view",
            "type": "function"
        },
        {
            "inputs": [
                {
                    "internalType": "address",
                    "name": "owner",
                    "type": "address"
                },
                {
                    "internalType": "address",
                    "name": "operator",
                    "type": "address"
                }
            ],
            "name": "isApprovedForAll",
            "outputs": [
                {
                    "internalType": "bool",
                    "name": "",
                    "type": "bool"
                }
            ],
            "stateMutability": "view",
            "type": "function"
        },
        {
            "inputs": [
                {
                    "internalType": "address",
                    "name": "to",
                    "type": "address"
                },
                {
                    "internalType": "uint256",
                    "name": "amount",
                    "type": "uint256"
                }
            ],
            "name": "mint",
            "outputs": [],
            "stateMutability": "payable",
            "type": "function"
        },
        {
            "inputs": [],
            "name": "name",
            "outputs": [
                {
                    "internalType": "string",
                    "name": "",
                    "type": "string"
                }
            ],
            "stateMutability": "view",
            "type": "function"
        },
        {
            "inputs": [
                {
                    "internalType": "uint256",
                    "name": "tokenId",
                    "type": "uint256"
                }
            ],
            "name": "ownerOf",
            "outputs": [
                {
                    "internalType": "address",
                    "name": "",
                    "type": "address"
                }
            ],
            "stateMutability": "view",
            "type": "function"
        },
        {
            "inputs": [
                {
                    "internalType": "uint256",
                    "name": "",
                    "type": "uint256"
                }
            ],
            "name": "s_tokenIdToBalance",
            "outputs": [
                {
                    "internalType": "uint256",
                    "name": "",
                    "type": "uint256"
                }
            ],
            "stateMutability": "view",
            "type": "function"
        },
        {
            "inputs": [
                {
                    "internalType": "address",
                    "name": "from",
                    "type": "address"
                },
                {
                    "internalType": "address",
                    "name": "to",
                    "type": "address"
                },
                {
                    "internalType": "uint256",
                    "name": "tokenId",
                    "type": "uint256"
                }
            ],
            "name": "safeTransferFrom",
            "outputs": [],
            "stateMutability": "nonpayable",
            "type": "function"
        },
        {
            "inputs": [
                {
                    "internalType": "address",
                    "name": "from",
                    "type": "address"
                },
                {
                    "internalType": "address",
                    "name": "to",
                    "type": "address"
                },
                {
                    "internalType": "uint256",
                    "name": "tokenId",
                    "type": "uint256"
                },
                {
                    "internalType": "bytes",
                    "name": "data",
                    "type": "bytes"
                }
            ],
            "name": "safeTransferFrom",
            "outputs": [],
            "stateMutability": "nonpayable",
            "type": "function"
        },
        {
            "inputs": [
                {
                    "internalType": "uint256",
                    "name": "amount",
                    "type": "uint256"
                },
                {
                    "internalType": "address",
                    "name": "recipient",
                    "type": "address"
                },
                {
                    "internalType": "uint256",
                    "name": "tokenId",
                    "type": "uint256"
                }
            ],
            "name": "sendValue",
            "outputs": [],
            "stateMutability": "nonpayable",
            "type": "function"
        },
        {
            "inputs": [
                {
                    "internalType": "address",
                    "name": "operator",
                    "type": "address"
                },
                {
                    "internalType": "bool",
                    "name": "approved",
                    "type": "bool"
                }
            ],
            "name": "setApprovalForAll",
            "outputs": [],
            "stateMutability": "nonpayable",
            "type": "function"
        },
        {
            "inputs": [
                {
                    "internalType": "uint256",
                    "name": "depositFee",
                    "type": "uint256"
                }
            ],
            "name": "setDepositFee",
            "outputs": [],
            "stateMutability": "nonpayable",
            "type": "function"
        },
        {
            "inputs": [
                {
                    "internalType": "bytes4",
                    "name": "interfaceId",
                    "type": "bytes4"
                }
            ],
            "name": "supportsInterface",
            "outputs": [
                {
                    "internalType": "bool",
                    "name": "",
                    "type": "bool"
                }
            ],
            "stateMutability": "view",
            "type": "function"
        },
        {
            "inputs": [],
            "name": "symbol",
            "outputs": [
                {
                    "internalType": "string",
                    "name": "",
                    "type": "string"
                }
            ],
            "stateMutability": "view",
            "type": "function"
        },
        {
            "inputs": [
                {
                    "internalType": "uint256",
                    "name": "tokenId",
                    "type": "uint256"
                }
            ],
            "name": "tokenURI",
            "outputs": [
                {
                    "internalType": "string",
                    "name": "",
                    "type": "string"
                }
            ],
            "stateMutability": "view",
            "type": "function"
        },
        {
            "inputs": [
                {
                    "internalType": "address",
                    "name": "from",
                    "type": "address"
                },
                {
                    "internalType": "address",
                    "name": "to",
                    "type": "address"
                },
                {
                    "internalType": "uint256",
                    "name": "tokenId",
                    "type": "uint256"
                }
            ],
            "name": "transferFrom",
            "outputs": [],
            "stateMutability": "nonpayable",
            "type": "function"
        },
        {
            "inputs": [],
            "name": "withdrawFees",
            "outputs": [],
            "stateMutability": "nonpayable",
            "type": "function"
        }
    ],
    "bytecode": "60e06040523480156200001157600080fd5b5060405162001cd138038062001cd18339810160408190526200003491620000be565b6040518060400160405280600d81526020016c115d1a195c99585b0810d85c99609a1b8152506040518060400160405280600481526020016310d0549160e21b8152508160009081620000889190620001ab565b506001620000978282620001ab565b50506000600655506007929092556001600160a01b031660c0526080523360a05262000277565b600080600060608486031215620000d457600080fd5b835160208501519093506001600160a01b0381168114620000f457600080fd5b80925050604084015190509250925092565b634e487b7160e01b600052604160045260246000fd5b600181811c908216806200013157607f821691505b6020821081036200015257634e487b7160e01b600052602260045260246000fd5b50919050565b601f821115620001a657600081815260208120601f850160051c81016020861015620001815750805b601f850160051c820191505b81811015620001a2578281556001016200018d565b5050505b505050565b81516001600160401b03811115620001c757620001c762000106565b620001df81620001d884546200011c565b8462000158565b602080601f831160018114620002175760008415620001fe5750858301515b600019600386901b1c1916600185901b178555620001a2565b600085815260208120601f198616915b82811015620002485788860151825594840194600190910190840162000227565b5085821015620002675787850151600019600388901b60f8161c191681555b5050505050600190811b01905550565b60805160a05160c051611a0e620002c360003960008181610713015281816108d80152610aed0152600081816108340152818161097601526109f2015260006106830152611a0e6000f3fe6080604052600436106101405760003560e01c80636352211e116100b657806395d89b411161006f57806395d89b4114610381578063a22cb46514610396578063b88d4fde146103b6578063c87b56dd146103d6578063e125232e146103f6578063e985e9c51461040b57600080fd5b80636352211e146102bd5780636e02007d146102dd57806370a08231146102f257806378ce903514610312578063864ec294146103275780639105d7481461035457600080fd5b806323b872dd1161010857806323b872dd1461021557806340c10f191461023557806342842e0e14610248578063476343ee14610268578063490ae2101461027d57806356b6a9921461029d57600080fd5b806301ffc9a71461014557806306fdde031461017a578063081812fc1461019c578063095ea7b3146101d45780630de705b5146101f6575b600080fd5b34801561015157600080fd5b506101656101603660046114c0565b61042b565b60405190151581526020015b60405180910390f35b34801561018657600080fd5b5061018f61047d565b604051610171919061152a565b3480156101a857600080fd5b506101bc6101b736600461153d565b61050f565b6040516001600160a01b039091168152602001610171565b3480156101e057600080fd5b506101f46101ef366004611572565b610536565b005b34801561020257600080fd5b506007545b604051908152602001610171565b34801561022157600080fd5b506101f461023036600461159c565b610650565b6101f4610243366004611572565b610681565b34801561025457600080fd5b506101f461026336600461159c565b61080e565b34801561027457600080fd5b506101f4610829565b34801561028957600080fd5b506101f461029836600461153d565b61096b565b3480156102a957600080fd5b506101f46102b83660046115d8565b6109e7565b3480156102c957600080fd5b506101bc6102d836600461153d565b610b76565b3480156102e957600080fd5b50600654610207565b3480156102fe57600080fd5b5061020761030d3660046115fd565b610bd6565b34801561031e57600080fd5b5061018f610c5c565b34801561033357600080fd5b5061020761034236600461153d565b60096020526000908152604090205481565b34801561036057600080fd5b5061020761036f36600461153d565b60009081526009602052604090205490565b34801561038d57600080fd5b5061018f610c78565b3480156103a257600080fd5b506101f46103b1366004611626565b610c87565b3480156103c257600080fd5b506101f46103d1366004611673565b610c96565b3480156103e257600080fd5b5061018f6103f136600461153d565b610cce565b34801561040257600080fd5b50600854610207565b34801561041757600080fd5b5061016561042636600461174f565b610d6c565b60006001600160e01b031982166380ac58cd60e01b148061045c57506001600160e01b03198216635b5e139f60e01b145b8061047757506301ffc9a760e01b6001600160e01b03198316145b92915050565b60606000805461048c90611782565b80601f01602080910402602001604051908101604052809291908181526020018280546104b890611782565b80156105055780601f106104da57610100808354040283529160200191610505565b820191906000526020600020905b8154815290600101906020018083116104e857829003601f168201915b5050505050905090565b600061051a82610d9a565b506000908152600460205260409020546001600160a01b031690565b600061054182610b76565b9050806001600160a01b0316836001600160a01b0316036105b35760405162461bcd60e51b815260206004820152602160248201527f4552433732313a20617070726f76616c20746f2063757272656e74206f776e656044820152603960f91b60648201526084015b60405180910390fd5b336001600160a01b03821614806105cf57506105cf8133610d6c565b6106415760405162461bcd60e51b815260206004820152603d60248201527f4552433732313a20617070726f76652063616c6c6572206973206e6f7420746f60448201527f6b656e206f776e6572206f7220617070726f76656420666f7220616c6c00000060648201526084016105aa565b61064b8383610dfc565b505050565b61065a3382610e6a565b6106765760405162461bcd60e51b81526004016105aa906117bc565b61064b838383610ec9565b7f00000000000000000000000000000000000000000000000000000000000000008110156106f15760405162461bcd60e51b815260206004820152601f60248201527f416d6f756e74206c657373207468616e206d696e696d756d20616d6f756e740060448201526064016105aa565b6040516323b872dd60e01b8152336004820152306024820152604481018290527f00000000000000000000000000000000000000000000000000000000000000006001600160a01b0316906323b872dd906064016020604051808303816000875af1158015610764573d6000803e3d6000fd5b505050506040513d601f19601f820116820180604052508101906107889190611809565b6107a45760405162461bcd60e51b81526004016105aa90611826565b6107b08260065461103a565b6000600754826107c0919061186a565b905080600860008282546107d4919061188c565b909155506107e49050818361189f565b600680546000908152600960205260409020919091555461080690600161188c565b600655505050565b61064b83838360405180602001604052806000815250610c96565b336001600160a01b037f000000000000000000000000000000000000000000000000000000000000000016146108725760405163074855df60e11b815260040160405180910390fd5b6000600854116108b85760405162461bcd60e51b8152602060048201526011602482015270139bc81199595cc811d95b995c985d1959607a1b60448201526064016105aa565b60085460405163a9059cbb60e01b815233600482015260248101919091527f00000000000000000000000000000000000000000000000000000000000000006001600160a01b03169063a9059cbb906044016020604051808303816000875af1158015610929573d6000803e3d6000fd5b505050506040513d601f19601f8201168201806040525081019061094d9190611809565b6109695760405162461bcd60e51b81526004016105aa90611826565b565b336001600160a01b037f000000000000000000000000000000000000000000000000000000000000000016146109b45760405163074855df60e11b815260040160405180910390fd5b600781905560405181907f12865465a7036a0232cbf9fb63ce880a3ee54f702775fe7abbc3c416e7968cd590600090a250565b336001600160a01b037f00000000000000000000000000000000000000000000000000000000000000001614610a305760405163074855df60e11b815260040160405180910390fd5b60008311610a755760405162461bcd60e51b815260206004820152601260248201527153656e642056616c756520546f6f204c6f7760701b60448201526064016105aa565b600081815260096020526040902054831115610aa45760405163bc6d4aff60e01b815260040160405180910390fd5b60008181526009602052604081208054859290610ac290849061189f565b909155505060405163a9059cbb60e01b81526001600160a01b038381166004830152602482018590527f0000000000000000000000000000000000000000000000000000000000000000169063a9059cbb906044016020604051808303816000875af1158015610b36573d6000803e3d6000fd5b505050506040513d601f19601f82011682018060405250810190610b5a9190611809565b61064b5760405162461bcd60e51b81526004016105aa90611826565b6000818152600260205260408120546001600160a01b0316806104775760405162461bcd60e51b8152602060048201526018602482015277115490cdcc8c4e881a5b9d985b1a59081d1bdad95b88125160421b60448201526064016105aa565b60006001600160a01b038216610c405760405162461bcd60e51b815260206004820152602960248201527f4552433732313a2061646472657373207a65726f206973206e6f7420612076616044820152683634b21037bbb732b960b91b60648201526084016105aa565b506001600160a01b031660009081526003602052604090205490565b6040518060600160405280603581526020016119a46035913981565b60606001805461048c90611782565b610c92338383611054565b5050565b610ca03383610e6a565b610cbc5760405162461bcd60e51b81526004016105aa906117bc565b610cc884848484611122565b50505050565b6000818152600260205260409020546060906001600160a01b0316610d4d5760405162461bcd60e51b815260206004820152602f60248201527f4552433732314d657461646174613a2055524920717565727920666f72206e6f60448201526e3732bc34b9ba32b73a103a37b5b2b760891b60648201526084016105aa565b6040518060600160405280603581526020016119a46035913992915050565b6001600160a01b03918216600090815260056020908152604080832093909416825291909152205460ff1690565b6000818152600260205260409020546001600160a01b0316610df95760405162461bcd60e51b8152602060048201526018602482015277115490cdcc8c4e881a5b9d985b1a59081d1bdad95b88125160421b60448201526064016105aa565b50565b600081815260046020526040902080546001600160a01b0319166001600160a01b0384169081179091558190610e3182610b76565b6001600160a01b03167f8c5be1e5ebec7d5bd14f71427d1e84f3dd0314c0f7b2291e5b200ac8c7c3b92560405160405180910390a45050565b600080610e7683610b76565b9050806001600160a01b0316846001600160a01b03161480610e9d5750610e9d8185610d6c565b80610ec15750836001600160a01b0316610eb68461050f565b6001600160a01b0316145b949350505050565b826001600160a01b0316610edc82610b76565b6001600160a01b031614610f025760405162461bcd60e51b81526004016105aa906118b2565b6001600160a01b038216610f645760405162461bcd60e51b8152602060048201526024808201527f4552433732313a207472616e7366657220746f20746865207a65726f206164646044820152637265737360e01b60648201526084016105aa565b610f718383836001611155565b826001600160a01b0316610f8482610b76565b6001600160a01b031614610faa5760405162461bcd60e51b81526004016105aa906118b2565b600081815260046020908152604080832080546001600160a01b03199081169091556001600160a01b0387811680865260038552838620805460001901905590871680865283862080546001019055868652600290945282852080549092168417909155905184937fddf252ad1be2c89b69c2b068fc378daa952ba7f163c4a11628f55a4df523b3ef91a4505050565b610c928282604051806020016040528060008152506111dd565b816001600160a01b0316836001600160a01b0316036110b55760405162461bcd60e51b815260206004820152601960248201527f4552433732313a20617070726f766520746f2063616c6c65720000000000000060448201526064016105aa565b6001600160a01b03838116600081815260056020908152604080832094871680845294825291829020805460ff191686151590811790915591519182527f17307eab39ab6107e8899845ad3d59bd9653f200f220920489ca2b5937696c31910160405180910390a3505050565b61112d848484610ec9565b61113984848484611210565b610cc85760405162461bcd60e51b81526004016105aa906118f7565b6001811115610cc8576001600160a01b0384161561119b576001600160a01b0384166000908152600360205260408120805483929061119590849061189f565b90915550505b6001600160a01b03831615610cc8576001600160a01b038316600090815260036020526040812080548392906111d290849061188c565b909155505050505050565b6111e78383611311565b6111f46000848484611210565b61064b5760405162461bcd60e51b81526004016105aa906118f7565b60006001600160a01b0384163b1561130657604051630a85bd0160e11b81526001600160a01b0385169063150b7a0290611254903390899088908890600401611949565b6020604051808303816000875af192505050801561128f575060408051601f3d908101601f1916820190925261128c91810190611986565b60015b6112ec573d8080156112bd576040519150601f19603f3d011682016040523d82523d6000602084013e6112c2565b606091505b5080516000036112e45760405162461bcd60e51b81526004016105aa906118f7565b805181602001fd5b6001600160e01b031916630a85bd0160e11b149050610ec1565b506001949350505050565b6001600160a01b0382166113675760405162461bcd60e51b815260206004820181905260248201527f4552433732313a206d696e7420746f20746865207a65726f206164647265737360448201526064016105aa565b6000818152600260205260409020546001600160a01b0316156113cc5760405162461bcd60e51b815260206004820152601c60248201527f4552433732313a20746f6b656e20616c7265616479206d696e7465640000000060448201526064016105aa565b6113da600083836001611155565b6000818152600260205260409020546001600160a01b03161561143f5760405162461bcd60e51b815260206004820152601c60248201527f4552433732313a20746f6b656e20616c7265616479206d696e7465640000000060448201526064016105aa565b6001600160a01b038216600081815260036020908152604080832080546001019055848352600290915280822080546001600160a01b0319168417905551839291907fddf252ad1be2c89b69c2b068fc378daa952ba7f163c4a11628f55a4df523b3ef908290a45050565b6001600160e01b031981168114610df957600080fd5b6000602082840312156114d257600080fd5b81356114dd816114aa565b9392505050565b6000815180845260005b8181101561150a576020818501810151868301820152016114ee565b506000602082860101526020601f19601f83011685010191505092915050565b6020815260006114dd60208301846114e4565b60006020828403121561154f57600080fd5b5035919050565b80356001600160a01b038116811461156d57600080fd5b919050565b6000806040838503121561158557600080fd5b61158e83611556565b946020939093013593505050565b6000806000606084860312156115b157600080fd5b6115ba84611556565b92506115c860208501611556565b9150604084013590509250925092565b6000806000606084860312156115ed57600080fd5b833592506115c860208501611556565b60006020828403121561160f57600080fd5b6114dd82611556565b8015158114610df957600080fd5b6000806040838503121561163957600080fd5b61164283611556565b9150602083013561165281611618565b809150509250929050565b634e487b7160e01b600052604160045260246000fd5b6000806000806080858703121561168957600080fd5b61169285611556565b93506116a060208601611556565b925060408501359150606085013567ffffffffffffffff808211156116c457600080fd5b818701915087601f8301126116d857600080fd5b8135818111156116ea576116ea61165d565b604051601f8201601f19908116603f011681019083821181831017156117125761171261165d565b816040528281528a602084870101111561172b57600080fd5b82602086016020830137600060208483010152809550505050505092959194509250565b6000806040838503121561176257600080fd5b61176b83611556565b915061177960208401611556565b90509250929050565b600181811c9082168061179657607f821691505b6020821081036117b657634e487b7160e01b600052602260045260246000fd5b50919050565b6020808252602d908201527f4552433732313a2063616c6c6572206973206e6f7420746f6b656e206f776e6560408201526c1c881bdc88185c1c1c9bdd9959609a1b606082015260800190565b60006020828403121561181b57600080fd5b81516114dd81611618565b6020808252601490820152731554d110c81d1c985b9cd9995c8819985a5b195960621b604082015260600190565b634e487b7160e01b600052601160045260246000fd5b60008261188757634e487b7160e01b600052601260045260246000fd5b500490565b8082018082111561047757610477611854565b8181038181111561047757610477611854565b60208082526025908201527f4552433732313a207472616e736665722066726f6d20696e636f72726563742060408201526437bbb732b960d91b606082015260800190565b60208082526032908201527f4552433732313a207472616e7366657220746f206e6f6e20455243373231526560408201527131b2b4bb32b91034b6b83632b6b2b73a32b960711b606082015260800190565b6001600160a01b038581168252841660208201526040810183905260806060820181905260009061197c908301846114e4565b9695505050505050565b60006020828403121561199857600080fd5b81516114dd816114aa56fe697066733a2f2f516d4e614c463141586771317a6d42416569706f5673525736626377347738616178397473464a62626763314369a26469706673582212205282a812fb0968065efef010509d320c02ae657e08267b4b6063649ab1d6b69464736f6c63430008130033",
    "sourcePath": "/Users/michael/Desktop/programs/learn_solidity/hardhat-nft/contracts/CardNft.sol",
    "compiler": {
        "name": "solc",
        "version": "0.8.19+commit.7dd6d404"
    },
    "functionHashes": {
        "TOKEN_URI()": "78ce9035",
        "approve(address,uint256)": "095ea7b3",
        "balanceOf(address)": "70a08231",
        "getApproved(uint256)": "081812fc",
        "getDepositFee()": "0de705b5",
        "getFeesGenerated()": "e125232e",
        "getTokenBalance(uint256)": "9105d748",
        "getTokenCounter()": "6e02007d",
        "isApprovedForAll(address,address)": "e985e9c5",
        "mint(address,uint256)": "40c10f19",
        "name()": "06fdde03",
        "ownerOf(uint256)": "6352211e",
        "s_tokenIdToBalance(uint256)": "864ec294",
        "safeTransferFrom(address,address,uint256)": "42842e0e",
        "safeTransferFrom(address,address,uint256,bytes)": "b88d4fde",
        "sendValue(uint256,address,uint256)": "56b6a992",
        "setApprovalForAll(address,bool)": "a22cb465",
        "setDepositFee(uint256)": "490ae210",
        "supportsInterface(bytes4)": "01ffc9a7",
        "symbol()": "95d89b41",
        "tokenURI(uint256)": "c87b56dd",
        "transferFrom(address,address,uint256)": "23b872dd",
        "withdrawFees()": "476343ee"
    },
    "gasEstimates": {
        "creation": {
            "codeDepositCost": "1334000",
            "executionCost": "infinite",
            "totalCost": "infinite"
        },
        "external": {
            "TOKEN_URI()": "infinite",
            "approve(address,uint256)": "infinite",
            "balanceOf(address)": "2656",
            "getApproved(uint256)": "4792",
            "getDepositFee()": "2393",
            "getFeesGenerated()": "2402",
            "getTokenBalance(uint256)": "2571",
            "getTokenCounter()": "2337",
            "isApprovedForAll(address,address)": "infinite",
            "mint(address,uint256)": "infinite",
            "name()": "infinite",
            "ownerOf(uint256)": "2561",
            "s_tokenIdToBalance(uint256)": "2549",
            "safeTransferFrom(address,address,uint256)": "infinite",
            "safeTransferFrom(address,address,uint256,bytes)": "infinite",
            "sendValue(uint256,address,uint256)": "infinite",
            "setApprovalForAll(address,bool)": "26756",
            "setDepositFee(uint256)": "infinite",
            "supportsInterface(bytes4)": "534",
            "symbol()": "infinite",
            "tokenURI(uint256)": "infinite",
            "transferFrom(address,address,uint256)": "infinite",
            "withdrawFees()": "infinite"
        }
    }
}