{
  "_format": "hh-sol-artifact-1",
  "contractName": "BasicNft",
  "sourceName": "contracts/BasicNft.sol",
  "abi": [
    {
      "inputs": [
        {
          "internalType": "uint256",
          "name": "mintFee",
          "type": "uint256"
        }
      ],
      "stateMutability": "nonpayable",
      "type": "constructor"
    },
    {
      "inputs": [],
      "name": "BasicNft__NeedMoreETHSent",
      "type": "error"
    },
    {
      "inputs": [],
      "name": "BasicNft__RoyaltyPaymentFailed",
      "type": "error"
    },
    {
      "anonymous": false,
      "inputs": [
        {
          "indexed": true,
          "internalType": "address",
          "name": "owner",
          "type": "address"
        },
        {
          "indexed": true,
          "internalType": "address",
          "name": "approved",
          "type": "address"
        },
        {
          "indexed": true,
          "internalType": "uint256",
          "name": "tokenId",
          "type": "uint256"
        }
      ],
      "name": "Approval",
      "type": "event"
    },
    {
      "anonymous": false,
      "inputs": [
        {
          "indexed": true,
          "internalType": "address",
          "name": "owner",
          "type": "address"
        },
        {
          "indexed": true,
          "internalType": "address",
          "name": "operator",
          "type": "address"
        },
        {
          "indexed": false,
          "internalType": "bool",
          "name": "approved",
          "type": "bool"
        }
      ],
      "name": "ApprovalForAll",
      "type": "event"
    },
    {
      "anonymous": false,
      "inputs": [
        {
          "indexed": true,
          "internalType": "address",
          "name": "from",
          "type": "address"
        },
        {
          "indexed": true,
          "internalType": "address",
          "name": "to",
          "type": "address"
        },
        {
          "indexed": true,
          "internalType": "uint256",
          "name": "tokenId",
          "type": "uint256"
        }
      ],
      "name": "Transfer",
      "type": "event"
    },
    {
      "inputs": [],
      "name": "TOKEN_URI",
      "outputs": [
        {
          "internalType": "string",
          "name": "",
          "type": "string"
        }
      ],
      "stateMutability": "view",
      "type": "function"
    },
    {
      "inputs": [
        {
          "internalType": "address",
          "name": "to",
          "type": "address"
        },
        {
          "internalType": "uint256",
          "name": "tokenId",
          "type": "uint256"
        }
      ],
      "name": "approve",
      "outputs": [],
      "stateMutability": "nonpayable",
      "type": "function"
    },
    {
      "inputs": [
        {
          "internalType": "address",
          "name": "owner",
          "type": "address"
        }
      ],
      "name": "balanceOf",
      "outputs": [
        {
          "internalType": "uint256",
          "name": "",
          "type": "uint256"
        }
      ],
      "stateMutability": "view",
      "type": "function"
    },
    {
      "inputs": [
        {
          "internalType": "address",
          "name": "_to",
          "type": "address"
        },
        {
          "internalType": "uint256",
          "name": "_quantity",
          "type": "uint256"
        }
      ],
      "name": "claimTo",
      "outputs": [
        {
          "internalType": "uint256",
          "name": "",
          "type": "uint256"
        }
      ],
      "stateMutability": "payable",
      "type": "function"
    },
    {
      "inputs": [
        {
          "internalType": "uint256",
          "name": "tokenId",
          "type": "uint256"
        }
      ],
      "name": "getApproved",
      "outputs": [
        {
          "internalType": "address",
          "name": "",
          "type": "address"
        }
      ],
      "stateMutability": "view",
      "type": "function"
    },
    {
      "inputs": [],
      "name": "getMintFee",
      "outputs": [
        {
          "internalType": "uint256",
          "name": "",
          "type": "uint256"
        }
      ],
      "stateMutability": "view",
      "type": "function"
    },
    {
      "inputs": [],
      "name": "getTokenCounter",
      "outputs": [
        {
          "internalType": "uint256",
          "name": "",
          "type": "uint256"
        }
      ],
      "stateMutability": "view",
      "type": "function"
    },
    {
      "inputs": [],
      "name": "getTokenOwners",
      "outputs": [
        {
          "internalType": "address[]",
          "name": "",
          "type": "address[]"
        }
      ],
      "stateMutability": "view",
      "type": "function"
    },
    {
      "inputs": [
        {
          "internalType": "address",
          "name": "owner",
          "type": "address"
        },
        {
          "internalType": "address",
          "name": "operator",
          "type": "address"
        }
      ],
      "name": "isApprovedForAll",
      "outputs": [
        {
          "internalType": "bool",
          "name": "",
          "type": "bool"
        }
      ],
      "stateMutability": "view",
      "type": "function"
    },
    {
      "inputs": [],
      "name": "name",
      "outputs": [
        {
          "internalType": "string",
          "name": "",
          "type": "string"
        }
      ],
      "stateMutability": "view",
      "type": "function"
    },
    {
      "inputs": [
        {
          "internalType": "uint256",
          "name": "tokenId",
          "type": "uint256"
        }
      ],
      "name": "ownerOf",
      "outputs": [
        {
          "internalType": "address",
          "name": "",
          "type": "address"
        }
      ],
      "stateMutability": "view",
      "type": "function"
    },
    {
      "inputs": [
        {
          "internalType": "address",
          "name": "from",
          "type": "address"
        },
        {
          "internalType": "address",
          "name": "to",
          "type": "address"
        },
        {
          "internalType": "uint256",
          "name": "tokenId",
          "type": "uint256"
        }
      ],
      "name": "safeTransferFrom",
      "outputs": [],
      "stateMutability": "nonpayable",
      "type": "function"
    },
    {
      "inputs": [
        {
          "internalType": "address",
          "name": "from",
          "type": "address"
        },
        {
          "internalType": "address",
          "name": "to",
          "type": "address"
        },
        {
          "internalType": "uint256",
          "name": "tokenId",
          "type": "uint256"
        },
        {
          "internalType": "bytes",
          "name": "data",
          "type": "bytes"
        }
      ],
      "name": "safeTransferFrom",
      "outputs": [],
      "stateMutability": "nonpayable",
      "type": "function"
    },
    {
      "inputs": [
        {
          "internalType": "address",
          "name": "operator",
          "type": "address"
        },
        {
          "internalType": "bool",
          "name": "approved",
          "type": "bool"
        }
      ],
      "name": "setApprovalForAll",
      "outputs": [],
      "stateMutability": "nonpayable",
      "type": "function"
    },
    {
      "inputs": [
        {
          "internalType": "bytes4",
          "name": "interfaceId",
          "type": "bytes4"
        }
      ],
      "name": "supportsInterface",
      "outputs": [
        {
          "internalType": "bool",
          "name": "",
          "type": "bool"
        }
      ],
      "stateMutability": "view",
      "type": "function"
    },
    {
      "inputs": [],
      "name": "symbol",
      "outputs": [
        {
          "internalType": "string",
          "name": "",
          "type": "string"
        }
      ],
      "stateMutability": "view",
      "type": "function"
    },
    {
      "inputs": [
        {
          "internalType": "uint256",
          "name": "",
          "type": "uint256"
        }
      ],
      "name": "tokenURI",
      "outputs": [
        {
          "internalType": "string",
          "name": "",
          "type": "string"
        }
      ],
      "stateMutability": "view",
      "type": "function"
    },
    {
      "inputs": [
        {
          "internalType": "address",
          "name": "from",
          "type": "address"
        },
        {
          "internalType": "address",
          "name": "to",
          "type": "address"
        },
        {
          "internalType": "uint256",
          "name": "tokenId",
          "type": "uint256"
        }
      ],
      "name": "transferFrom",
      "outputs": [],
      "stateMutability": "nonpayable",
      "type": "function"
    }
  ],
  "bytecode": "0x60a06040523480156200001157600080fd5b5060405162002fbc38038062002fbc8339818101604052810190620000379190620001de565b6040518060400160405280600681526020017f646f6767696500000000000000000000000000000000000000000000000000008152506040518060400160405280600381526020017f444f4700000000000000000000000000000000000000000000000000000000008152508160009080519060200190620000bb929190620000ee565b508060019080519060200190620000d4929190620000ee565b505050806080818152505060006006819055505062000275565b828054620000fc906200023f565b90600052602060002090601f0160209004810192826200012057600085556200016c565b82601f106200013b57805160ff19168380011785556200016c565b828001600101855582156200016c579182015b828111156200016b5782518255916020019190600101906200014e565b5b5090506200017b91906200017f565b5090565b5b808211156200019a57600081600090555060010162000180565b5090565b600080fd5b6000819050919050565b620001b881620001a3565b8114620001c457600080fd5b50565b600081519050620001d881620001ad565b92915050565b600060208284031215620001f757620001f66200019e565b5b60006200020784828501620001c7565b91505092915050565b7f4e487b7100000000000000000000000000000000000000000000000000000000600052602260045260246000fd5b600060028204905060018216806200025857607f821691505b602082108114156200026f576200026e62000210565b5b50919050565b608051612d16620002a6600039600081816107520152818161081301528181610a480152610d470152612d166000f3fe6080604052600436106101095760003560e01c806370a0823111610095578063a22cb46511610064578063a22cb46514610384578063b88d4fde146103ad578063c87b56dd146103d6578063d1b02ba714610413578063e985e9c51461043e57610109565b806370a08231146102c657806378ce9035146103035780637a5caab31461032e57806395d89b411461035957610109565b80631204fe0c116100dc5780631204fe0c146101dc57806323b872dd1461020c57806342842e0e146102355780636352211e1461025e5780636e02007d1461029b57610109565b806301ffc9a71461010e57806306fdde031461014b578063081812fc14610176578063095ea7b3146101b3575b600080fd5b34801561011a57600080fd5b5061013560048036038101906101309190611d2f565b61047b565b6040516101429190611d77565b60405180910390f35b34801561015757600080fd5b5061016061055d565b60405161016d9190611e2b565b60405180910390f35b34801561018257600080fd5b5061019d60048036038101906101989190611e83565b6105ef565b6040516101aa9190611ef1565b60405180910390f35b3480156101bf57600080fd5b506101da60048036038101906101d59190611f38565b610635565b005b6101f660048036038101906101f19190611f38565b61074d565b6040516102039190611f87565b60405180910390f35b34801561021857600080fd5b50610233600480360381019061022e9190611fa2565b610b5e565b005b34801561024157600080fd5b5061025c60048036038101906102579190611fa2565b610bbe565b005b34801561026a57600080fd5b5061028560048036038101906102809190611e83565b610bde565b6040516102929190611ef1565b60405180910390f35b3480156102a757600080fd5b506102b0610c65565b6040516102bd9190611f87565b60405180910390f35b3480156102d257600080fd5b506102ed60048036038101906102e89190611ff5565b610c6f565b6040516102fa9190611f87565b60405180910390f35b34801561030f57600080fd5b50610318610d27565b6040516103259190611e2b565b60405180910390f35b34801561033a57600080fd5b50610343610d43565b6040516103509190611f87565b60405180910390f35b34801561036557600080fd5b5061036e610d6b565b60405161037b9190611e2b565b60405180910390f35b34801561039057600080fd5b506103ab60048036038101906103a6919061204e565b610dfd565b005b3480156103b957600080fd5b506103d460048036038101906103cf91906121c3565b610e13565b005b3480156103e257600080fd5b506103fd60048036038101906103f89190611e83565b610e75565b60405161040a9190611e2b565b60405180910390f35b34801561041f57600080fd5b50610428610e97565b6040516104359190612304565b60405180910390f35b34801561044a57600080fd5b5061046560048036038101906104609190612326565b610f66565b6040516104729190611d77565b60405180910390f35b60007f80ac58cd000000000000000000000000000000000000000000000000000000007bffffffffffffffffffffffffffffffffffffffffffffffffffffffff1916827bffffffffffffffffffffffffffffffffffffffffffffffffffffffff1916148061054657507f5b5e139f000000000000000000000000000000000000000000000000000000007bffffffffffffffffffffffffffffffffffffffffffffffffffffffff1916827bffffffffffffffffffffffffffffffffffffffffffffffffffffffff1916145b80610556575061055582610ffa565b5b9050919050565b60606000805461056c90612395565b80601f016020809104026020016040519081016040528092919081815260200182805461059890612395565b80156105e55780601f106105ba576101008083540402835291602001916105e5565b820191906000526020600020905b8154815290600101906020018083116105c857829003601f168201915b5050505050905090565b60006105fa82611064565b6004600083815260200190815260200160002060009054906101000a900473ffffffffffffffffffffffffffffffffffffffff169050919050565b600061064082610bde565b90508073ffffffffffffffffffffffffffffffffffffffff168373ffffffffffffffffffffffffffffffffffffffff1614156106b1576040517f08c379a00000000000000000000000000000000000000000000000000000000081526004016106a890612439565b60405180910390fd5b8073ffffffffffffffffffffffffffffffffffffffff166106d06110af565b73ffffffffffffffffffffffffffffffffffffffff1614806106ff57506106fe816106f96110af565b610f66565b5b61073e576040517f08c379a0000000000000000000000000000000000000000000000000000000008152600401610735906124cb565b60405180910390fd5b61074883836110b7565b505050565b6000817f000000000000000000000000000000000000000000000000000000000000000061077b919061251a565b3410156107b4576040517fbdfa370800000000000000000000000000000000000000000000000000000000815260040160405180910390fd5b60005b828110156107f3576107cb84600654611170565b60016006546107da9190612574565b60068190555080806107eb906125ca565b9150506107b7565b5060016006541115610b5857600061080b6000610bde565b90506000600a7f000000000000000000000000000000000000000000000000000000000000000061083c9190612642565b905060008273ffffffffffffffffffffffffffffffffffffffff1682604051610864906126a4565b60006040518083038185875af1925050503d80600081146108a1576040519150601f19603f3d011682016040523d82523d6000602084013e6108a6565b606091505b50509050806108e1576040517f2ae9dec700000000000000000000000000000000000000000000000000000000815260040160405180910390fd5b60046006541115610b54576000600367ffffffffffffffff81111561090957610908612098565b5b6040519080825280602002602001820160405280156109375781602001602082028036833780820191505090505b5090506109446001610bde565b81600081518110610958576109576126b9565b5b602002602001019073ffffffffffffffffffffffffffffffffffffffff16908173ffffffffffffffffffffffffffffffffffffffff168152505061099c6002610bde565b816001815181106109b0576109af6126b9565b5b602002602001019073ffffffffffffffffffffffffffffffffffffffff16908173ffffffffffffffffffffffffffffffffffffffff16815250506109f46003610bde565b81600281518110610a0857610a076126b9565b5b602002602001019073ffffffffffffffffffffffffffffffffffffffff16908173ffffffffffffffffffffffffffffffffffffffff1681525050600060147f0000000000000000000000000000000000000000000000000000000000000000610a719190612642565b905060005b8251811015610b50576000838281518110610a9457610a936126b9565b5b602002602001015173ffffffffffffffffffffffffffffffffffffffff1683604051610abf906126a4565b60006040518083038185875af1925050503d8060008114610afc576040519150601f19603f3d011682016040523d82523d6000602084013e610b01565b606091505b5050905080610b3c576040517f2ae9dec700000000000000000000000000000000000000000000000000000000815260040160405180910390fd5b508080610b48906125ca565b915050610a76565b5050505b5050505b92915050565b610b6f610b696110af565b8261118e565b610bae576040517f08c379a0000000000000000000000000000000000000000000000000000000008152600401610ba59061275a565b60405180910390fd5b610bb9838383611223565b505050565b610bd983838360405180602001604052806000815250610e13565b505050565b600080610bea8361151d565b9050600073ffffffffffffffffffffffffffffffffffffffff168173ffffffffffffffffffffffffffffffffffffffff161415610c5c576040517f08c379a0000000000000000000000000000000000000000000000000000000008152600401610c53906127c6565b60405180910390fd5b80915050919050565b6000600654905090565b60008073ffffffffffffffffffffffffffffffffffffffff168273ffffffffffffffffffffffffffffffffffffffff161415610ce0576040517f08c379a0000000000000000000000000000000000000000000000000000000008152600401610cd790612858565b60405180910390fd5b600360008373ffffffffffffffffffffffffffffffffffffffff1673ffffffffffffffffffffffffffffffffffffffff168152602001908152602001600020549050919050565b604051806080016040528060578152602001612c8a6057913981565b60007f0000000000000000000000000000000000000000000000000000000000000000905090565b606060018054610d7a90612395565b80601f0160208091040260200160405190810160405280929190818152602001828054610da690612395565b8015610df35780601f10610dc857610100808354040283529160200191610df3565b820191906000526020600020905b815481529060010190602001808311610dd657829003601f168201915b5050505050905090565b610e0f610e086110af565b838361155a565b5050565b610e24610e1e6110af565b8361118e565b610e63576040517f08c379a0000000000000000000000000000000000000000000000000000000008152600401610e5a9061275a565b60405180910390fd5b610e6f848484846116c7565b50505050565b6060604051806080016040528060578152602001612c8a605791399050919050565b6060600060065467ffffffffffffffff811115610eb757610eb6612098565b5b604051908082528060200260200182016040528015610ee55781602001602082028036833780820191505090505b50905060005b600654811015610f5e57610efe81610bde565b828281518110610f1157610f106126b9565b5b602002602001019073ffffffffffffffffffffffffffffffffffffffff16908173ffffffffffffffffffffffffffffffffffffffff16815250508080610f56906125ca565b915050610eeb565b508091505090565b6000600560008473ffffffffffffffffffffffffffffffffffffffff1673ffffffffffffffffffffffffffffffffffffffff16815260200190815260200160002060008373ffffffffffffffffffffffffffffffffffffffff1673ffffffffffffffffffffffffffffffffffffffff16815260200190815260200160002060009054906101000a900460ff16905092915050565b60007f01ffc9a7000000000000000000000000000000000000000000000000000000007bffffffffffffffffffffffffffffffffffffffffffffffffffffffff1916827bffffffffffffffffffffffffffffffffffffffffffffffffffffffff1916149050919050565b61106d81611723565b6110ac576040517f08c379a00000000000000000000000000000000000000000000000000000000081526004016110a3906127c6565b60405180910390fd5b50565b600033905090565b816004600083815260200190815260200160002060006101000a81548173ffffffffffffffffffffffffffffffffffffffff021916908373ffffffffffffffffffffffffffffffffffffffff160217905550808273ffffffffffffffffffffffffffffffffffffffff1661112a83610bde565b73ffffffffffffffffffffffffffffffffffffffff167f8c5be1e5ebec7d5bd14f71427d1e84f3dd0314c0f7b2291e5b200ac8c7c3b92560405160405180910390a45050565b61118a828260405180602001604052806000815250611764565b5050565b60008061119a83610bde565b90508073ffffffffffffffffffffffffffffffffffffffff168473ffffffffffffffffffffffffffffffffffffffff1614806111dc57506111db8185610f66565b5b8061121a57508373ffffffffffffffffffffffffffffffffffffffff16611202846105ef565b73ffffffffffffffffffffffffffffffffffffffff16145b91505092915050565b8273ffffffffffffffffffffffffffffffffffffffff1661124382610bde565b73ffffffffffffffffffffffffffffffffffffffff1614611299576040517f08c379a0000000000000000000000000000000000000000000000000000000008152600401611290906128ea565b60405180910390fd5b600073ffffffffffffffffffffffffffffffffffffffff168273ffffffffffffffffffffffffffffffffffffffff161415611309576040517f08c379a00000000000000000000000000000000000000000000000000000000081526004016113009061297c565b60405180910390fd5b61131683838360016117bf565b8273ffffffffffffffffffffffffffffffffffffffff1661133682610bde565b73ffffffffffffffffffffffffffffffffffffffff161461138c576040517f08c379a0000000000000000000000000000000000000000000000000000000008152600401611383906128ea565b60405180910390fd5b6004600082815260200190815260200160002060006101000a81549073ffffffffffffffffffffffffffffffffffffffff02191690556001600360008573ffffffffffffffffffffffffffffffffffffffff1673ffffffffffffffffffffffffffffffffffffffff168152602001908152602001600020600082825403925050819055506001600360008473ffffffffffffffffffffffffffffffffffffffff1673ffffffffffffffffffffffffffffffffffffffff16815260200190815260200160002060008282540192505081905550816002600083815260200190815260200160002060006101000a81548173ffffffffffffffffffffffffffffffffffffffff021916908373ffffffffffffffffffffffffffffffffffffffff160217905550808273ffffffffffffffffffffffffffffffffffffffff168473ffffffffffffffffffffffffffffffffffffffff167fddf252ad1be2c89b69c2b068fc378daa952ba7f163c4a11628f55a4df523b3ef60405160405180910390a461151883838360016118e5565b505050565b60006002600083815260200190815260200160002060009054906101000a900473ffffffffffffffffffffffffffffffffffffffff169050919050565b8173ffffffffffffffffffffffffffffffffffffffff168373ffffffffffffffffffffffffffffffffffffffff1614156115c9576040517f08c379a00000000000000000000000000000000000000000000000000000000081526004016115c0906129e8565b60405180910390fd5b80600560008573ffffffffffffffffffffffffffffffffffffffff1673ffffffffffffffffffffffffffffffffffffffff16815260200190815260200160002060008473ffffffffffffffffffffffffffffffffffffffff1673ffffffffffffffffffffffffffffffffffffffff16815260200190815260200160002060006101000a81548160ff0219169083151502179055508173ffffffffffffffffffffffffffffffffffffffff168373ffffffffffffffffffffffffffffffffffffffff167f17307eab39ab6107e8899845ad3d59bd9653f200f220920489ca2b5937696c31836040516116ba9190611d77565b60405180910390a3505050565b6116d2848484611223565b6116de848484846118eb565b61171d576040517f08c379a000000000000000000000000000000000000000000000000000000000815260040161171490612a7a565b60405180910390fd5b50505050565b60008073ffffffffffffffffffffffffffffffffffffffff166117458361151d565b73ffffffffffffffffffffffffffffffffffffffff1614159050919050565b61176e8383611a82565b61177b60008484846118eb565b6117ba576040517f08c379a00000000000000000000000000000000000000000000000000000000081526004016117b190612a7a565b60405180910390fd5b505050565b60018111156118df57600073ffffffffffffffffffffffffffffffffffffffff168473ffffffffffffffffffffffffffffffffffffffff16146118535780600360008673ffffffffffffffffffffffffffffffffffffffff1673ffffffffffffffffffffffffffffffffffffffff168152602001908152602001600020600082825461184b9190612a9a565b925050819055505b600073ffffffffffffffffffffffffffffffffffffffff168373ffffffffffffffffffffffffffffffffffffffff16146118de5780600360008573ffffffffffffffffffffffffffffffffffffffff1673ffffffffffffffffffffffffffffffffffffffff16815260200190815260200160002060008282546118d69190612574565b925050819055505b5b50505050565b50505050565b600061190c8473ffffffffffffffffffffffffffffffffffffffff16611ca0565b15611a75578373ffffffffffffffffffffffffffffffffffffffff1663150b7a026119356110af565b8786866040518563ffffffff1660e01b81526004016119579493929190612b23565b602060405180830381600087803b15801561197157600080fd5b505af19250505080156119a257506040513d601f19601f8201168201806040525081019061199f9190612b84565b60015b611a25573d80600081146119d2576040519150601f19603f3d011682016040523d82523d6000602084013e6119d7565b606091505b50600081511415611a1d576040517f08c379a0000000000000000000000000000000000000000000000000000000008152600401611a1490612a7a565b60405180910390fd5b805181602001fd5b63150b7a0260e01b7bffffffffffffffffffffffffffffffffffffffffffffffffffffffff1916817bffffffffffffffffffffffffffffffffffffffffffffffffffffffff191614915050611a7a565b600190505b949350505050565b600073ffffffffffffffffffffffffffffffffffffffff168273ffffffffffffffffffffffffffffffffffffffff161415611af2576040517f08c379a0000000000000000000000000000000000000000000000000000000008152600401611ae990612bfd565b60405180910390fd5b611afb81611723565b15611b3b576040517f08c379a0000000000000000000000000000000000000000000000000000000008152600401611b3290612c69565b60405180910390fd5b611b496000838360016117bf565b611b5281611723565b15611b92576040517f08c379a0000000000000000000000000000000000000000000000000000000008152600401611b8990612c69565b60405180910390fd5b6001600360008473ffffffffffffffffffffffffffffffffffffffff1673ffffffffffffffffffffffffffffffffffffffff16815260200190815260200160002060008282540192505081905550816002600083815260200190815260200160002060006101000a81548173ffffffffffffffffffffffffffffffffffffffff021916908373ffffffffffffffffffffffffffffffffffffffff160217905550808273ffffffffffffffffffffffffffffffffffffffff16600073ffffffffffffffffffffffffffffffffffffffff167fddf252ad1be2c89b69c2b068fc378daa952ba7f163c4a11628f55a4df523b3ef60405160405180910390a4611c9c6000838360016118e5565b5050565b6000808273ffffffffffffffffffffffffffffffffffffffff163b119050919050565b6000604051905090565b600080fd5b600080fd5b60007fffffffff0000000000000000000000000000000000000000000000000000000082169050919050565b611d0c81611cd7565b8114611d1757600080fd5b50565b600081359050611d2981611d03565b92915050565b600060208284031215611d4557611d44611ccd565b5b6000611d5384828501611d1a565b91505092915050565b60008115159050919050565b611d7181611d5c565b82525050565b6000602082019050611d8c6000830184611d68565b92915050565b600081519050919050565b600082825260208201905092915050565b60005b83811015611dcc578082015181840152602081019050611db1565b83811115611ddb576000848401525b50505050565b6000601f19601f8301169050919050565b6000611dfd82611d92565b611e078185611d9d565b9350611e17818560208601611dae565b611e2081611de1565b840191505092915050565b60006020820190508181036000830152611e458184611df2565b905092915050565b6000819050919050565b611e6081611e4d565b8114611e6b57600080fd5b50565b600081359050611e7d81611e57565b92915050565b600060208284031215611e9957611e98611ccd565b5b6000611ea784828501611e6e565b91505092915050565b600073ffffffffffffffffffffffffffffffffffffffff82169050919050565b6000611edb82611eb0565b9050919050565b611eeb81611ed0565b82525050565b6000602082019050611f066000830184611ee2565b92915050565b611f1581611ed0565b8114611f2057600080fd5b50565b600081359050611f3281611f0c565b92915050565b60008060408385031215611f4f57611f4e611ccd565b5b6000611f5d85828601611f23565b9250506020611f6e85828601611e6e565b9150509250929050565b611f8181611e4d565b82525050565b6000602082019050611f9c6000830184611f78565b92915050565b600080600060608486031215611fbb57611fba611ccd565b5b6000611fc986828701611f23565b9350506020611fda86828701611f23565b9250506040611feb86828701611e6e565b9150509250925092565b60006020828403121561200b5761200a611ccd565b5b600061201984828501611f23565b91505092915050565b61202b81611d5c565b811461203657600080fd5b50565b60008135905061204881612022565b92915050565b6000806040838503121561206557612064611ccd565b5b600061207385828601611f23565b925050602061208485828601612039565b9150509250929050565b600080fd5b600080fd5b7f4e487b7100000000000000000000000000000000000000000000000000000000600052604160045260246000fd5b6120d082611de1565b810181811067ffffffffffffffff821117156120ef576120ee612098565b5b80604052505050565b6000612102611cc3565b905061210e82826120c7565b919050565b600067ffffffffffffffff82111561212e5761212d612098565b5b61213782611de1565b9050602081019050919050565b82818337600083830152505050565b600061216661216184612113565b6120f8565b90508281526020810184848401111561218257612181612093565b5b61218d848285612144565b509392505050565b600082601f8301126121aa576121a961208e565b5b81356121ba848260208601612153565b91505092915050565b600080600080608085870312156121dd576121dc611ccd565b5b60006121eb87828801611f23565b94505060206121fc87828801611f23565b935050604061220d87828801611e6e565b925050606085013567ffffffffffffffff81111561222e5761222d611cd2565b5b61223a87828801612195565b91505092959194509250565b600081519050919050565b600082825260208201905092915050565b6000819050602082019050919050565b61227b81611ed0565b82525050565b600061228d8383612272565b60208301905092915050565b6000602082019050919050565b60006122b182612246565b6122bb8185612251565b93506122c683612262565b8060005b838110156122f75781516122de8882612281565b97506122e983612299565b9250506001810190506122ca565b5085935050505092915050565b6000602082019050818103600083015261231e81846122a6565b905092915050565b6000806040838503121561233d5761233c611ccd565b5b600061234b85828601611f23565b925050602061235c85828601611f23565b9150509250929050565b7f4e487b7100000000000000000000000000000000000000000000000000000000600052602260045260246000fd5b600060028204905060018216806123ad57607f821691505b602082108114156123c1576123c0612366565b5b50919050565b7f4552433732313a20617070726f76616c20746f2063757272656e74206f776e6560008201527f7200000000000000000000000000000000000000000000000000000000000000602082015250565b6000612423602183611d9d565b915061242e826123c7565b604082019050919050565b6000602082019050818103600083015261245281612416565b9050919050565b7f4552433732313a20617070726f76652063616c6c6572206973206e6f7420746f60008201527f6b656e206f776e6572206f7220617070726f76656420666f7220616c6c000000602082015250565b60006124b5603d83611d9d565b91506124c082612459565b604082019050919050565b600060208201905081810360008301526124e4816124a8565b9050919050565b7f4e487b7100000000000000000000000000000000000000000000000000000000600052601160045260246000fd5b600061252582611e4d565b915061253083611e4d565b9250817fffffffffffffffffffffffffffffffffffffffffffffffffffffffffffffffff0483118215151615612569576125686124eb565b5b828202905092915050565b600061257f82611e4d565b915061258a83611e4d565b9250827fffffffffffffffffffffffffffffffffffffffffffffffffffffffffffffffff038211156125bf576125be6124eb565b5b828201905092915050565b60006125d582611e4d565b91507fffffffffffffffffffffffffffffffffffffffffffffffffffffffffffffffff821415612608576126076124eb565b5b600182019050919050565b7f4e487b7100000000000000000000000000000000000000000000000000000000600052601260045260246000fd5b600061264d82611e4d565b915061265883611e4d565b92508261266857612667612613565b5b828204905092915050565b600081905092915050565b50565b600061268e600083612673565b91506126998261267e565b600082019050919050565b60006126af82612681565b9150819050919050565b7f4e487b7100000000000000000000000000000000000000000000000000000000600052603260045260246000fd5b7f4552433732313a2063616c6c6572206973206e6f7420746f6b656e206f776e6560008201527f72206f7220617070726f76656400000000000000000000000000000000000000602082015250565b6000612744602d83611d9d565b915061274f826126e8565b604082019050919050565b6000602082019050818103600083015261277381612737565b9050919050565b7f4552433732313a20696e76616c696420746f6b656e2049440000000000000000600082015250565b60006127b0601883611d9d565b91506127bb8261277a565b602082019050919050565b600060208201905081810360008301526127df816127a3565b9050919050565b7f4552433732313a2061646472657373207a65726f206973206e6f74206120766160008201527f6c6964206f776e65720000000000000000000000000000000000000000000000602082015250565b6000612842602983611d9d565b915061284d826127e6565b604082019050919050565b6000602082019050818103600083015261287181612835565b9050919050565b7f4552433732313a207472616e736665722066726f6d20696e636f72726563742060008201527f6f776e6572000000000000000000000000000000000000000000000000000000602082015250565b60006128d4602583611d9d565b91506128df82612878565b604082019050919050565b60006020820190508181036000830152612903816128c7565b9050919050565b7f4552433732313a207472616e7366657220746f20746865207a65726f2061646460008201527f7265737300000000000000000000000000000000000000000000000000000000602082015250565b6000612966602483611d9d565b91506129718261290a565b604082019050919050565b6000602082019050818103600083015261299581612959565b9050919050565b7f4552433732313a20617070726f766520746f2063616c6c657200000000000000600082015250565b60006129d2601983611d9d565b91506129dd8261299c565b602082019050919050565b60006020820190508181036000830152612a01816129c5565b9050919050565b7f4552433732313a207472616e7366657220746f206e6f6e20455243373231526560008201527f63656976657220696d706c656d656e7465720000000000000000000000000000602082015250565b6000612a64603283611d9d565b9150612a6f82612a08565b604082019050919050565b60006020820190508181036000830152612a9381612a57565b9050919050565b6000612aa582611e4d565b9150612ab083611e4d565b925082821015612ac357612ac26124eb565b5b828203905092915050565b600081519050919050565b600082825260208201905092915050565b6000612af582612ace565b612aff8185612ad9565b9350612b0f818560208601611dae565b612b1881611de1565b840191505092915050565b6000608082019050612b386000830187611ee2565b612b456020830186611ee2565b612b526040830185611f78565b8181036060830152612b648184612aea565b905095945050505050565b600081519050612b7e81611d03565b92915050565b600060208284031215612b9a57612b99611ccd565b5b6000612ba884828501612b6f565b91505092915050565b7f4552433732313a206d696e7420746f20746865207a65726f2061646472657373600082015250565b6000612be7602083611d9d565b9150612bf282612bb1565b602082019050919050565b60006020820190508181036000830152612c1681612bda565b9050919050565b7f4552433732313a20746f6b656e20616c7265616479206d696e74656400000000600082015250565b6000612c53601c83611d9d565b9150612c5e82612c1d565b602082019050919050565b60006020820190508181036000830152612c8281612c46565b905091905056fe697066733a2f2f62616679626569673337696f6972373673376d67356f6f6265746e636f6a636d3363336878617379643472766964346a71687934676b61686567342f3f66696c656e616d653d302d5055472e6a736f6ea26469706673582212202fddab61a40ad1dc1565431a51d43400123ed61593583fbb43432bd8bb27420e64736f6c63430008080033",
  "linkReferences": {},
  "deployedLinkReferences": {}
}