{
  "_format": "hh-sol-artifact-1",
  "contractName": "NFTDepositContract",
  "sourceName": "contracts/NFTDepositContract.sol",
  "abi": [
    {
      "inputs": [
        {
          "internalType": "uint256",
          "name": "depositFee",
          "type": "uint256"
        }
      ],
      "stateMutability": "nonpayable",
      "type": "constructor"
    },
    {
      "inputs": [],
      "name": "NFTDepositContract__InsufficientBalance",
      "type": "error"
    },
    {
      "inputs": [],
      "name": "NFTDepositContract__NotOwner",
      "type": "error"
    },
    {
      "inputs": [],
      "name": "NFTDepositContract__TransferFailed",
      "type": "error"
    },
    {
      "anonymous": false,
      "inputs": [
        {
          "indexed": true,
          "internalType": "address",
          "name": "owner",
          "type": "address"
        },
        {
          "indexed": true,
          "internalType": "address",
          "name": "approved",
          "type": "address"
        },
        {
          "indexed": true,
          "internalType": "uint256",
          "name": "tokenId",
          "type": "uint256"
        }
      ],
      "name": "Approval",
      "type": "event"
    },
    {
      "anonymous": false,
      "inputs": [
        {
          "indexed": true,
          "internalType": "address",
          "name": "owner",
          "type": "address"
        },
        {
          "indexed": true,
          "internalType": "address",
          "name": "operator",
          "type": "address"
        },
        {
          "indexed": false,
          "internalType": "bool",
          "name": "approved",
          "type": "bool"
        }
      ],
      "name": "ApprovalForAll",
      "type": "event"
    },
    {
      "anonymous": false,
      "inputs": [
        {
          "indexed": true,
          "internalType": "uint256",
          "name": "fee",
          "type": "uint256"
        }
      ],
      "name": "DepositFeeSet",
      "type": "event"
    },
    {
      "anonymous": false,
      "inputs": [
        {
          "indexed": true,
          "internalType": "address",
          "name": "from",
          "type": "address"
        },
        {
          "indexed": true,
          "internalType": "address",
          "name": "to",
          "type": "address"
        },
        {
          "indexed": true,
          "internalType": "uint256",
          "name": "tokenId",
          "type": "uint256"
        }
      ],
      "name": "Transfer",
      "type": "event"
    },
    {
      "anonymous": false,
      "inputs": [
        {
          "indexed": true,
          "internalType": "uint256",
          "name": "fromTokenId",
          "type": "uint256"
        },
        {
          "indexed": false,
          "internalType": "address",
          "name": "recipient",
          "type": "address"
        },
        {
          "indexed": false,
          "internalType": "uint256",
          "name": "amount",
          "type": "uint256"
        }
      ],
      "name": "ValueSent",
      "type": "event"
    },
    {
      "inputs": [],
      "name": "TOKEN_URI",
      "outputs": [
        {
          "internalType": "string",
          "name": "",
          "type": "string"
        }
      ],
      "stateMutability": "view",
      "type": "function"
    },
    {
      "inputs": [
        {
          "internalType": "address",
          "name": "to",
          "type": "address"
        },
        {
          "internalType": "uint256",
          "name": "tokenId",
          "type": "uint256"
        }
      ],
      "name": "approve",
      "outputs": [],
      "stateMutability": "nonpayable",
      "type": "function"
    },
    {
      "inputs": [
        {
          "internalType": "address",
          "name": "owner",
          "type": "address"
        }
      ],
      "name": "balanceOf",
      "outputs": [
        {
          "internalType": "uint256",
          "name": "",
          "type": "uint256"
        }
      ],
      "stateMutability": "view",
      "type": "function"
    },
    {
      "inputs": [
        {
          "internalType": "uint256",
          "name": "tokenId",
          "type": "uint256"
        }
      ],
      "name": "getApproved",
      "outputs": [
        {
          "internalType": "address",
          "name": "",
          "type": "address"
        }
      ],
      "stateMutability": "view",
      "type": "function"
    },
    {
      "inputs": [],
      "name": "getDepositFee",
      "outputs": [
        {
          "internalType": "uint256",
          "name": "",
          "type": "uint256"
        }
      ],
      "stateMutability": "view",
      "type": "function"
    },
    {
      "inputs": [],
      "name": "getFeesGenerates",
      "outputs": [
        {
          "internalType": "uint256",
          "name": "",
          "type": "uint256"
        }
      ],
      "stateMutability": "view",
      "type": "function"
    },
    {
      "inputs": [
        {
          "internalType": "uint256",
          "name": "tokenId",
          "type": "uint256"
        }
      ],
      "name": "getTokenBalance",
      "outputs": [
        {
          "internalType": "uint256",
          "name": "",
          "type": "uint256"
        }
      ],
      "stateMutability": "view",
      "type": "function"
    },
    {
      "inputs": [],
      "name": "getTokenCounter",
      "outputs": [
        {
          "internalType": "uint256",
          "name": "",
          "type": "uint256"
        }
      ],
      "stateMutability": "view",
      "type": "function"
    },
    {
      "inputs": [
        {
          "internalType": "address",
          "name": "owner",
          "type": "address"
        },
        {
          "internalType": "address",
          "name": "operator",
          "type": "address"
        }
      ],
      "name": "isApprovedForAll",
      "outputs": [
        {
          "internalType": "bool",
          "name": "",
          "type": "bool"
        }
      ],
      "stateMutability": "view",
      "type": "function"
    },
    {
      "inputs": [
        {
          "internalType": "address",
          "name": "_to",
          "type": "address"
        }
      ],
      "name": "mint",
      "outputs": [],
      "stateMutability": "payable",
      "type": "function"
    },
    {
      "inputs": [],
      "name": "name",
      "outputs": [
        {
          "internalType": "string",
          "name": "",
          "type": "string"
        }
      ],
      "stateMutability": "view",
      "type": "function"
    },
    {
      "inputs": [
        {
          "internalType": "uint256",
          "name": "tokenId",
          "type": "uint256"
        }
      ],
      "name": "ownerOf",
      "outputs": [
        {
          "internalType": "address",
          "name": "",
          "type": "address"
        }
      ],
      "stateMutability": "view",
      "type": "function"
    },
    {
      "inputs": [
        {
          "internalType": "uint256",
          "name": "",
          "type": "uint256"
        }
      ],
      "name": "s_tokenIdToBalance",
      "outputs": [
        {
          "internalType": "uint256",
          "name": "",
          "type": "uint256"
        }
      ],
      "stateMutability": "view",
      "type": "function"
    },
    {
      "inputs": [
        {
          "internalType": "address",
          "name": "from",
          "type": "address"
        },
        {
          "internalType": "address",
          "name": "to",
          "type": "address"
        },
        {
          "internalType": "uint256",
          "name": "tokenId",
          "type": "uint256"
        }
      ],
      "name": "safeTransferFrom",
      "outputs": [],
      "stateMutability": "nonpayable",
      "type": "function"
    },
    {
      "inputs": [
        {
          "internalType": "address",
          "name": "from",
          "type": "address"
        },
        {
          "internalType": "address",
          "name": "to",
          "type": "address"
        },
        {
          "internalType": "uint256",
          "name": "tokenId",
          "type": "uint256"
        },
        {
          "internalType": "bytes",
          "name": "data",
          "type": "bytes"
        }
      ],
      "name": "safeTransferFrom",
      "outputs": [],
      "stateMutability": "nonpayable",
      "type": "function"
    },
    {
      "inputs": [
        {
          "internalType": "uint256",
          "name": "amount",
          "type": "uint256"
        },
        {
          "internalType": "address",
          "name": "recipient",
          "type": "address"
        },
        {
          "internalType": "uint256",
          "name": "tokenId",
          "type": "uint256"
        }
      ],
      "name": "sendValue",
      "outputs": [],
      "stateMutability": "nonpayable",
      "type": "function"
    },
    {
      "inputs": [
        {
          "internalType": "address",
          "name": "operator",
          "type": "address"
        },
        {
          "internalType": "bool",
          "name": "approved",
          "type": "bool"
        }
      ],
      "name": "setApprovalForAll",
      "outputs": [],
      "stateMutability": "nonpayable",
      "type": "function"
    },
    {
      "inputs": [
        {
          "internalType": "uint256",
          "name": "depositFee",
          "type": "uint256"
        }
      ],
      "name": "setDepositFee",
      "outputs": [],
      "stateMutability": "nonpayable",
      "type": "function"
    },
    {
      "inputs": [
        {
          "internalType": "bytes4",
          "name": "interfaceId",
          "type": "bytes4"
        }
      ],
      "name": "supportsInterface",
      "outputs": [
        {
          "internalType": "bool",
          "name": "",
          "type": "bool"
        }
      ],
      "stateMutability": "view",
      "type": "function"
    },
    {
      "inputs": [],
      "name": "symbol",
      "outputs": [
        {
          "internalType": "string",
          "name": "",
          "type": "string"
        }
      ],
      "stateMutability": "view",
      "type": "function"
    },
    {
      "inputs": [
        {
          "internalType": "uint256",
          "name": "tokenId",
          "type": "uint256"
        }
      ],
      "name": "tokenURI",
      "outputs": [
        {
          "internalType": "string",
          "name": "",
          "type": "string"
        }
      ],
      "stateMutability": "view",
      "type": "function"
    },
    {
      "inputs": [
        {
          "internalType": "address",
          "name": "from",
          "type": "address"
        },
        {
          "internalType": "address",
          "name": "to",
          "type": "address"
        },
        {
          "internalType": "uint256",
          "name": "tokenId",
          "type": "uint256"
        }
      ],
      "name": "transferFrom",
      "outputs": [],
      "stateMutability": "nonpayable",
      "type": "function"
    },
    {
      "inputs": [],
      "name": "withdrawFees",
      "outputs": [],
      "stateMutability": "nonpayable",
      "type": "function"
    }
  ],
  "bytecode": "0x60a06040523480156200001157600080fd5b506040516200320938038062003209833981810160405281019062000037919062000214565b6040518060400160405280600d81526020017f457468657265616c2043617264000000000000000000000000000000000000008152506040518060400160405280600481526020017f43415244000000000000000000000000000000000000000000000000000000008152508160009080519060200190620000bb92919062000124565b508060019080519060200190620000d492919062000124565b5050506000600681905550806007819055503373ffffffffffffffffffffffffffffffffffffffff1660808173ffffffffffffffffffffffffffffffffffffffff1660601b8152505050620002ab565b828054620001329062000275565b90600052602060002090601f016020900481019282620001565760008555620001a2565b82601f106200017157805160ff1916838001178555620001a2565b82800160010185558215620001a2579182015b82811115620001a157825182559160200191906001019062000184565b5b509050620001b19190620001b5565b5090565b5b80821115620001d0576000816000905550600101620001b6565b5090565b600080fd5b6000819050919050565b620001ee81620001d9565b8114620001fa57600080fd5b50565b6000815190506200020e81620001e3565b92915050565b6000602082840312156200022d576200022c620001d4565b5b60006200023d84828501620001fd565b91505092915050565b7f4e487b7100000000000000000000000000000000000000000000000000000000600052602260045260246000fd5b600060028204905060018216806200028e57607f821691505b60208210811415620002a557620002a462000246565b5b50919050565b60805160601c612f31620002d8600039600081816108df01528181610a510152610b170152612f316000f3fe6080604052600436106101405760003560e01c80636352211e116100b65780639105d7481161006f5780639105d7481461044d57806395d89b411461048a578063a22cb465146104b5578063b88d4fde146104de578063c87b56dd14610507578063e985e9c51461054457610140565b80636352211e146103245780636a627842146103615780636e02007d1461037d57806370a08231146103a857806378ce9035146103e5578063864ec2941461041057610140565b806323b872dd1161010857806323b872dd1461023e57806342842e0e14610267578063476343ee14610290578063490ae210146102a757806353671cde146102d057806356b6a992146102fb57610140565b806301ffc9a71461014557806306fdde0314610182578063081812fc146101ad578063095ea7b3146101ea5780630de705b514610213575b600080fd5b34801561015157600080fd5b5061016c60048036038101906101679190611ecc565b610581565b6040516101799190611f14565b60405180910390f35b34801561018e57600080fd5b50610197610663565b6040516101a49190611fc8565b60405180910390f35b3480156101b957600080fd5b506101d460048036038101906101cf9190612020565b6106f5565b6040516101e1919061208e565b60405180910390f35b3480156101f657600080fd5b50610211600480360381019061020c91906120d5565b61073b565b005b34801561021f57600080fd5b50610228610853565b6040516102359190612124565b60405180910390f35b34801561024a57600080fd5b506102656004803603810190610260919061213f565b61085d565b005b34801561027357600080fd5b5061028e6004803603810190610289919061213f565b6108bd565b005b34801561029c57600080fd5b506102a56108dd565b005b3480156102b357600080fd5b506102ce60048036038101906102c99190612020565b610a4f565b005b3480156102dc57600080fd5b506102e5610b0b565b6040516102f29190612124565b60405180910390f35b34801561030757600080fd5b50610322600480360381019061031d9190612192565b610b15565b005b34801561033057600080fd5b5061034b60048036038101906103469190612020565b610d3d565b604051610358919061208e565b60405180910390f35b61037b600480360381019061037691906121e5565b610dc4565b005b34801561038957600080fd5b50610392610e7c565b60405161039f9190612124565b60405180910390f35b3480156103b457600080fd5b506103cf60048036038101906103ca91906121e5565b610e86565b6040516103dc9190612124565b60405180910390f35b3480156103f157600080fd5b506103fa610f3e565b6040516104079190611fc8565b60405180910390f35b34801561041c57600080fd5b5061043760048036038101906104329190612020565b610f5a565b6040516104449190612124565b60405180910390f35b34801561045957600080fd5b50610474600480360381019061046f9190612020565b610f72565b6040516104819190612124565b60405180910390f35b34801561049657600080fd5b5061049f610f8f565b6040516104ac9190611fc8565b60405180910390f35b3480156104c157600080fd5b506104dc60048036038101906104d7919061223e565b611021565b005b3480156104ea57600080fd5b50610505600480360381019061050091906123b3565b611037565b005b34801561051357600080fd5b5061052e60048036038101906105299190612020565b611099565b60405161053b9190611fc8565b60405180910390f35b34801561055057600080fd5b5061056b60048036038101906105669190612436565b611103565b6040516105789190611f14565b60405180910390f35b60007f80ac58cd000000000000000000000000000000000000000000000000000000007bffffffffffffffffffffffffffffffffffffffffffffffffffffffff1916827bffffffffffffffffffffffffffffffffffffffffffffffffffffffff1916148061064c57507f5b5e139f000000000000000000000000000000000000000000000000000000007bffffffffffffffffffffffffffffffffffffffffffffffffffffffff1916827bffffffffffffffffffffffffffffffffffffffffffffffffffffffff1916145b8061065c575061065b82611197565b5b9050919050565b606060008054610672906124a5565b80601f016020809104026020016040519081016040528092919081815260200182805461069e906124a5565b80156106eb5780601f106106c0576101008083540402835291602001916106eb565b820191906000526020600020905b8154815290600101906020018083116106ce57829003601f168201915b5050505050905090565b600061070082611201565b6004600083815260200190815260200160002060009054906101000a900473ffffffffffffffffffffffffffffffffffffffff169050919050565b600061074682610d3d565b90508073ffffffffffffffffffffffffffffffffffffffff168373ffffffffffffffffffffffffffffffffffffffff1614156107b7576040517f08c379a00000000000000000000000000000000000000000000000000000000081526004016107ae90612549565b60405180910390fd5b8073ffffffffffffffffffffffffffffffffffffffff166107d661124c565b73ffffffffffffffffffffffffffffffffffffffff1614806108055750610804816107ff61124c565b611103565b5b610844576040517f08c379a000000000000000000000000000000000000000000000000000000000815260040161083b906125db565b60405180910390fd5b61084e8383611254565b505050565b6000600754905090565b61086e61086861124c565b8261130d565b6108ad576040517f08c379a00000000000000000000000000000000000000000000000000000000081526004016108a49061266d565b60405180910390fd5b6108b88383836113a2565b505050565b6108d883838360405180602001604052806000815250611037565b505050565b7f000000000000000000000000000000000000000000000000000000000000000073ffffffffffffffffffffffffffffffffffffffff163373ffffffffffffffffffffffffffffffffffffffff1614610962576040517f0e90abbe00000000000000000000000000000000000000000000000000000000815260040160405180910390fd5b6000600854116109a7576040517f08c379a000000000000000000000000000000000000000000000000000000000815260040161099e906126d9565b60405180910390fd5b60003373ffffffffffffffffffffffffffffffffffffffff166008546040516109cf9061272a565b60006040518083038185875af1925050503d8060008114610a0c576040519150601f19603f3d011682016040523d82523d6000602084013e610a11565b606091505b5050905080610a4c576040517fa926dd4700000000000000000000000000000000000000000000000000000000815260040160405180910390fd5b50565b7f000000000000000000000000000000000000000000000000000000000000000073ffffffffffffffffffffffffffffffffffffffff163373ffffffffffffffffffffffffffffffffffffffff1614610ad4576040517f0e90abbe00000000000000000000000000000000000000000000000000000000815260040160405180910390fd5b80600781905550807f12865465a7036a0232cbf9fb63ce880a3ee54f702775fe7abbc3c416e7968cd560405160405180910390a250565b6000600854905090565b7f000000000000000000000000000000000000000000000000000000000000000073ffffffffffffffffffffffffffffffffffffffff163373ffffffffffffffffffffffffffffffffffffffff1614610b9a576040517f0e90abbe00000000000000000000000000000000000000000000000000000000815260040160405180910390fd5b60008311610bdd576040517f08c379a0000000000000000000000000000000000000000000000000000000008152600401610bd49061278b565b60405180910390fd5b8260096000838152602001908152602001600020541015610c2a576040517fbc6d4aff00000000000000000000000000000000000000000000000000000000815260040160405180910390fd5b82600960008381526020019081526020016000206000828254610c4d91906127da565b9250508190555060008273ffffffffffffffffffffffffffffffffffffffff1684604051610c7a9061272a565b60006040518083038185875af1925050503d8060008114610cb7576040519150601f19603f3d011682016040523d82523d6000602084013e610cbc565b606091505b505090508015610d0557817f4717705d06a83b608ffd0b0262c29cdffd8186f57493746a34054c1c317e2c3b8486604051610cf892919061280e565b60405180910390a2610d37565b6040517fa926dd4700000000000000000000000000000000000000000000000000000000815260040160405180910390fd5b50505050565b600080610d498361169c565b9050600073ffffffffffffffffffffffffffffffffffffffff168173ffffffffffffffffffffffffffffffffffffffff161415610dbb576040517f08c379a0000000000000000000000000000000000000000000000000000000008152600401610db290612883565b60405180910390fd5b80915050919050565b60003411610e07576040517f08c379a0000000000000000000000000000000000000000000000000000000008152600401610dfe906128ef565b60405180910390fd5b610e13816006546116d9565b600060075434610e23919061293e565b90508060086000828254610e37919061296f565b925050819055508034610e4a91906127da565b600960006006548152602001908152602001600020819055506001600654610e72919061296f565b6006819055505050565b6000600654905090565b60008073ffffffffffffffffffffffffffffffffffffffff168273ffffffffffffffffffffffffffffffffffffffff161415610ef7576040517f08c379a0000000000000000000000000000000000000000000000000000000008152600401610eee90612a37565b60405180910390fd5b600360008373ffffffffffffffffffffffffffffffffffffffff1673ffffffffffffffffffffffffffffffffffffffff168152602001908152602001600020549050919050565b604051806060016040528060358152602001612ec76035913981565b60096020528060005260406000206000915090505481565b600060096000838152602001908152602001600020549050919050565b606060018054610f9e906124a5565b80601f0160208091040260200160405190810160405280929190818152602001828054610fca906124a5565b80156110175780601f10610fec57610100808354040283529160200191611017565b820191906000526020600020905b815481529060010190602001808311610ffa57829003601f168201915b5050505050905090565b61103361102c61124c565b83836116f7565b5050565b61104861104261124c565b8361130d565b611087576040517f08c379a000000000000000000000000000000000000000000000000000000000815260040161107e9061266d565b60405180910390fd5b61109384848484611864565b50505050565b60606110a4826118c0565b6110e3576040517f08c379a00000000000000000000000000000000000000000000000000000000081526004016110da90612ac9565b60405180910390fd5b604051806060016040528060358152602001612ec7603591399050919050565b6000600560008473ffffffffffffffffffffffffffffffffffffffff1673ffffffffffffffffffffffffffffffffffffffff16815260200190815260200160002060008373ffffffffffffffffffffffffffffffffffffffff1673ffffffffffffffffffffffffffffffffffffffff16815260200190815260200160002060009054906101000a900460ff16905092915050565b60007f01ffc9a7000000000000000000000000000000000000000000000000000000007bffffffffffffffffffffffffffffffffffffffffffffffffffffffff1916827bffffffffffffffffffffffffffffffffffffffffffffffffffffffff1916149050919050565b61120a816118c0565b611249576040517f08c379a000000000000000000000000000000000000000000000000000000000815260040161124090612883565b60405180910390fd5b50565b600033905090565b816004600083815260200190815260200160002060006101000a81548173ffffffffffffffffffffffffffffffffffffffff021916908373ffffffffffffffffffffffffffffffffffffffff160217905550808273ffffffffffffffffffffffffffffffffffffffff166112c783610d3d565b73ffffffffffffffffffffffffffffffffffffffff167f8c5be1e5ebec7d5bd14f71427d1e84f3dd0314c0f7b2291e5b200ac8c7c3b92560405160405180910390a45050565b60008061131983610d3d565b90508073ffffffffffffffffffffffffffffffffffffffff168473ffffffffffffffffffffffffffffffffffffffff16148061135b575061135a8185611103565b5b8061139957508373ffffffffffffffffffffffffffffffffffffffff16611381846106f5565b73ffffffffffffffffffffffffffffffffffffffff16145b91505092915050565b8273ffffffffffffffffffffffffffffffffffffffff166113c282610d3d565b73ffffffffffffffffffffffffffffffffffffffff1614611418576040517f08c379a000000000000000000000000000000000000000000000000000000000815260040161140f90612b5b565b60405180910390fd5b600073ffffffffffffffffffffffffffffffffffffffff168273ffffffffffffffffffffffffffffffffffffffff161415611488576040517f08c379a000000000000000000000000000000000000000000000000000000000815260040161147f90612bed565b60405180910390fd5b6114958383836001611901565b8273ffffffffffffffffffffffffffffffffffffffff166114b582610d3d565b73ffffffffffffffffffffffffffffffffffffffff161461150b576040517f08c379a000000000000000000000000000000000000000000000000000000000815260040161150290612b5b565b60405180910390fd5b6004600082815260200190815260200160002060006101000a81549073ffffffffffffffffffffffffffffffffffffffff02191690556001600360008573ffffffffffffffffffffffffffffffffffffffff1673ffffffffffffffffffffffffffffffffffffffff168152602001908152602001600020600082825403925050819055506001600360008473ffffffffffffffffffffffffffffffffffffffff1673ffffffffffffffffffffffffffffffffffffffff16815260200190815260200160002060008282540192505081905550816002600083815260200190815260200160002060006101000a81548173ffffffffffffffffffffffffffffffffffffffff021916908373ffffffffffffffffffffffffffffffffffffffff160217905550808273ffffffffffffffffffffffffffffffffffffffff168473ffffffffffffffffffffffffffffffffffffffff167fddf252ad1be2c89b69c2b068fc378daa952ba7f163c4a11628f55a4df523b3ef60405160405180910390a46116978383836001611a27565b505050565b60006002600083815260200190815260200160002060009054906101000a900473ffffffffffffffffffffffffffffffffffffffff169050919050565b6116f3828260405180602001604052806000815250611a2d565b5050565b8173ffffffffffffffffffffffffffffffffffffffff168373ffffffffffffffffffffffffffffffffffffffff161415611766576040517f08c379a000000000000000000000000000000000000000000000000000000000815260040161175d90612c59565b60405180910390fd5b80600560008573ffffffffffffffffffffffffffffffffffffffff1673ffffffffffffffffffffffffffffffffffffffff16815260200190815260200160002060008473ffffffffffffffffffffffffffffffffffffffff1673ffffffffffffffffffffffffffffffffffffffff16815260200190815260200160002060006101000a81548160ff0219169083151502179055508173ffffffffffffffffffffffffffffffffffffffff168373ffffffffffffffffffffffffffffffffffffffff167f17307eab39ab6107e8899845ad3d59bd9653f200f220920489ca2b5937696c31836040516118579190611f14565b60405180910390a3505050565b61186f8484846113a2565b61187b84848484611a88565b6118ba576040517f08c379a00000000000000000000000000000000000000000000000000000000081526004016118b190612ceb565b60405180910390fd5b50505050565b60008073ffffffffffffffffffffffffffffffffffffffff166118e28361169c565b73ffffffffffffffffffffffffffffffffffffffff1614159050919050565b6001811115611a2157600073ffffffffffffffffffffffffffffffffffffffff168473ffffffffffffffffffffffffffffffffffffffff16146119955780600360008673ffffffffffffffffffffffffffffffffffffffff1673ffffffffffffffffffffffffffffffffffffffff168152602001908152602001600020600082825461198d91906127da565b925050819055505b600073ffffffffffffffffffffffffffffffffffffffff168373ffffffffffffffffffffffffffffffffffffffff1614611a205780600360008573ffffffffffffffffffffffffffffffffffffffff1673ffffffffffffffffffffffffffffffffffffffff1681526020019081526020016000206000828254611a18919061296f565b925050819055505b5b50505050565b50505050565b611a378383611c1f565b611a446000848484611a88565b611a83576040517f08c379a0000000000000000000000000000000000000000000000000000000008152600401611a7a90612ceb565b60405180910390fd5b505050565b6000611aa98473ffffffffffffffffffffffffffffffffffffffff16611e3d565b15611c12578373ffffffffffffffffffffffffffffffffffffffff1663150b7a02611ad261124c565b8786866040518563ffffffff1660e01b8152600401611af49493929190612d60565b602060405180830381600087803b158015611b0e57600080fd5b505af1925050508015611b3f57506040513d601f19601f82011682018060405250810190611b3c9190612dc1565b60015b611bc2573d8060008114611b6f576040519150601f19603f3d011682016040523d82523d6000602084013e611b74565b606091505b50600081511415611bba576040517f08c379a0000000000000000000000000000000000000000000000000000000008152600401611bb190612ceb565b60405180910390fd5b805181602001fd5b63150b7a0260e01b7bffffffffffffffffffffffffffffffffffffffffffffffffffffffff1916817bffffffffffffffffffffffffffffffffffffffffffffffffffffffff191614915050611c17565b600190505b949350505050565b600073ffffffffffffffffffffffffffffffffffffffff168273ffffffffffffffffffffffffffffffffffffffff161415611c8f576040517f08c379a0000000000000000000000000000000000000000000000000000000008152600401611c8690612e3a565b60405180910390fd5b611c98816118c0565b15611cd8576040517f08c379a0000000000000000000000000000000000000000000000000000000008152600401611ccf90612ea6565b60405180910390fd5b611ce6600083836001611901565b611cef816118c0565b15611d2f576040517f08c379a0000000000000000000000000000000000000000000000000000000008152600401611d2690612ea6565b60405180910390fd5b6001600360008473ffffffffffffffffffffffffffffffffffffffff1673ffffffffffffffffffffffffffffffffffffffff16815260200190815260200160002060008282540192505081905550816002600083815260200190815260200160002060006101000a81548173ffffffffffffffffffffffffffffffffffffffff021916908373ffffffffffffffffffffffffffffffffffffffff160217905550808273ffffffffffffffffffffffffffffffffffffffff16600073ffffffffffffffffffffffffffffffffffffffff167fddf252ad1be2c89b69c2b068fc378daa952ba7f163c4a11628f55a4df523b3ef60405160405180910390a4611e39600083836001611a27565b5050565b6000808273ffffffffffffffffffffffffffffffffffffffff163b119050919050565b6000604051905090565b600080fd5b600080fd5b60007fffffffff0000000000000000000000000000000000000000000000000000000082169050919050565b611ea981611e74565b8114611eb457600080fd5b50565b600081359050611ec681611ea0565b92915050565b600060208284031215611ee257611ee1611e6a565b5b6000611ef084828501611eb7565b91505092915050565b60008115159050919050565b611f0e81611ef9565b82525050565b6000602082019050611f296000830184611f05565b92915050565b600081519050919050565b600082825260208201905092915050565b60005b83811015611f69578082015181840152602081019050611f4e565b83811115611f78576000848401525b50505050565b6000601f19601f8301169050919050565b6000611f9a82611f2f565b611fa48185611f3a565b9350611fb4818560208601611f4b565b611fbd81611f7e565b840191505092915050565b60006020820190508181036000830152611fe28184611f8f565b905092915050565b6000819050919050565b611ffd81611fea565b811461200857600080fd5b50565b60008135905061201a81611ff4565b92915050565b60006020828403121561203657612035611e6a565b5b60006120448482850161200b565b91505092915050565b600073ffffffffffffffffffffffffffffffffffffffff82169050919050565b60006120788261204d565b9050919050565b6120888161206d565b82525050565b60006020820190506120a3600083018461207f565b92915050565b6120b28161206d565b81146120bd57600080fd5b50565b6000813590506120cf816120a9565b92915050565b600080604083850312156120ec576120eb611e6a565b5b60006120fa858286016120c0565b925050602061210b8582860161200b565b9150509250929050565b61211e81611fea565b82525050565b60006020820190506121396000830184612115565b92915050565b60008060006060848603121561215857612157611e6a565b5b6000612166868287016120c0565b9350506020612177868287016120c0565b92505060406121888682870161200b565b9150509250925092565b6000806000606084860312156121ab576121aa611e6a565b5b60006121b98682870161200b565b93505060206121ca868287016120c0565b92505060406121db8682870161200b565b9150509250925092565b6000602082840312156121fb576121fa611e6a565b5b6000612209848285016120c0565b91505092915050565b61221b81611ef9565b811461222657600080fd5b50565b60008135905061223881612212565b92915050565b6000806040838503121561225557612254611e6a565b5b6000612263858286016120c0565b925050602061227485828601612229565b9150509250929050565b600080fd5b600080fd5b7f4e487b7100000000000000000000000000000000000000000000000000000000600052604160045260246000fd5b6122c082611f7e565b810181811067ffffffffffffffff821117156122df576122de612288565b5b80604052505050565b60006122f2611e60565b90506122fe82826122b7565b919050565b600067ffffffffffffffff82111561231e5761231d612288565b5b61232782611f7e565b9050602081019050919050565b82818337600083830152505050565b600061235661235184612303565b6122e8565b90508281526020810184848401111561237257612371612283565b5b61237d848285612334565b509392505050565b600082601f83011261239a5761239961227e565b5b81356123aa848260208601612343565b91505092915050565b600080600080608085870312156123cd576123cc611e6a565b5b60006123db878288016120c0565b94505060206123ec878288016120c0565b93505060406123fd8782880161200b565b925050606085013567ffffffffffffffff81111561241e5761241d611e6f565b5b61242a87828801612385565b91505092959194509250565b6000806040838503121561244d5761244c611e6a565b5b600061245b858286016120c0565b925050602061246c858286016120c0565b9150509250929050565b7f4e487b7100000000000000000000000000000000000000000000000000000000600052602260045260246000fd5b600060028204905060018216806124bd57607f821691505b602082108114156124d1576124d0612476565b5b50919050565b7f4552433732313a20617070726f76616c20746f2063757272656e74206f776e6560008201527f7200000000000000000000000000000000000000000000000000000000000000602082015250565b6000612533602183611f3a565b915061253e826124d7565b604082019050919050565b6000602082019050818103600083015261256281612526565b9050919050565b7f4552433732313a20617070726f76652063616c6c6572206973206e6f7420746f60008201527f6b656e206f776e6572206f7220617070726f76656420666f7220616c6c000000602082015250565b60006125c5603d83611f3a565b91506125d082612569565b604082019050919050565b600060208201905081810360008301526125f4816125b8565b9050919050565b7f4552433732313a2063616c6c6572206973206e6f7420746f6b656e206f776e6560008201527f72206f7220617070726f76656400000000000000000000000000000000000000602082015250565b6000612657602d83611f3a565b9150612662826125fb565b604082019050919050565b600060208201905081810360008301526126868161264a565b9050919050565b7f4e6f20466565732047656e657261746564000000000000000000000000000000600082015250565b60006126c3601183611f3a565b91506126ce8261268d565b602082019050919050565b600060208201905081810360008301526126f2816126b6565b9050919050565b600081905092915050565b50565b60006127146000836126f9565b915061271f82612704565b600082019050919050565b600061273582612707565b9150819050919050565b7f53656e642056616c756520546f6f204c6f770000000000000000000000000000600082015250565b6000612775601283611f3a565b91506127808261273f565b602082019050919050565b600060208201905081810360008301526127a481612768565b9050919050565b7f4e487b7100000000000000000000000000000000000000000000000000000000600052601160045260246000fd5b60006127e582611fea565b91506127f083611fea565b925082821015612803576128026127ab565b5b828203905092915050565b6000604082019050612823600083018561207f565b6128306020830184612115565b9392505050565b7f4552433732313a20696e76616c696420746f6b656e2049440000000000000000600082015250565b600061286d601883611f3a565b915061287882612837565b602082019050919050565b6000602082019050818103600083015261289c81612860565b9050919050565b7f4465706f7369742056616c756520546f6f204c6f770000000000000000000000600082015250565b60006128d9601583611f3a565b91506128e4826128a3565b602082019050919050565b60006020820190508181036000830152612908816128cc565b9050919050565b7f4e487b7100000000000000000000000000000000000000000000000000000000600052601260045260246000fd5b600061294982611fea565b915061295483611fea565b9250826129645761296361290f565b5b828204905092915050565b600061297a82611fea565b915061298583611fea565b9250827fffffffffffffffffffffffffffffffffffffffffffffffffffffffffffffffff038211156129ba576129b96127ab565b5b828201905092915050565b7f4552433732313a2061646472657373207a65726f206973206e6f74206120766160008201527f6c6964206f776e65720000000000000000000000000000000000000000000000602082015250565b6000612a21602983611f3a565b9150612a2c826129c5565b604082019050919050565b60006020820190508181036000830152612a5081612a14565b9050919050565b7f4552433732314d657461646174613a2055524920717565727920666f72206e6f60008201527f6e6578697374656e7420746f6b656e0000000000000000000000000000000000602082015250565b6000612ab3602f83611f3a565b9150612abe82612a57565b604082019050919050565b60006020820190508181036000830152612ae281612aa6565b9050919050565b7f4552433732313a207472616e736665722066726f6d20696e636f72726563742060008201527f6f776e6572000000000000000000000000000000000000000000000000000000602082015250565b6000612b45602583611f3a565b9150612b5082612ae9565b604082019050919050565b60006020820190508181036000830152612b7481612b38565b9050919050565b7f4552433732313a207472616e7366657220746f20746865207a65726f2061646460008201527f7265737300000000000000000000000000000000000000000000000000000000602082015250565b6000612bd7602483611f3a565b9150612be282612b7b565b604082019050919050565b60006020820190508181036000830152612c0681612bca565b9050919050565b7f4552433732313a20617070726f766520746f2063616c6c657200000000000000600082015250565b6000612c43601983611f3a565b9150612c4e82612c0d565b602082019050919050565b60006020820190508181036000830152612c7281612c36565b9050919050565b7f4552433732313a207472616e7366657220746f206e6f6e20455243373231526560008201527f63656976657220696d706c656d656e7465720000000000000000000000000000602082015250565b6000612cd5603283611f3a565b9150612ce082612c79565b604082019050919050565b60006020820190508181036000830152612d0481612cc8565b9050919050565b600081519050919050565b600082825260208201905092915050565b6000612d3282612d0b565b612d3c8185612d16565b9350612d4c818560208601611f4b565b612d5581611f7e565b840191505092915050565b6000608082019050612d75600083018761207f565b612d82602083018661207f565b612d8f6040830185612115565b8181036060830152612da18184612d27565b905095945050505050565b600081519050612dbb81611ea0565b92915050565b600060208284031215612dd757612dd6611e6a565b5b6000612de584828501612dac565b91505092915050565b7f4552433732313a206d696e7420746f20746865207a65726f2061646472657373600082015250565b6000612e24602083611f3a565b9150612e2f82612dee565b602082019050919050565b60006020820190508181036000830152612e5381612e17565b9050919050565b7f4552433732313a20746f6b656e20616c7265616479206d696e74656400000000600082015250565b6000612e90601c83611f3a565b9150612e9b82612e5a565b602082019050919050565b60006020820190508181036000830152612ebf81612e83565b905091905056fe697066733a2f2f516d4e614c463141586771317a6d42416569706f5673525736626377347738616178397473464a62626763314369a2646970667358221220e5c5fb91b333301b16e63d854162528169c09a0e828863814fae2af02361959d64736f6c63430008080033",
  "linkReferences": {},
  "deployedLinkReferences": {}
}