{
  "_format": "hh-sol-artifact-1",
  "contractName": "Card",
  "sourceName": "contracts/CardNft.sol",
  "abi": [
    {
      "inputs": [
        {
          "internalType": "uint256",
          "name": "depositFee",
          "type": "uint256"
        },
        {
          "internalType": "address",
          "name": "usdcAddress",
          "type": "address"
        }
      ],
      "stateMutability": "nonpayable",
      "type": "constructor"
    },
    {
      "inputs": [],
      "name": "NFTDepositContract__InsufficientBalance",
      "type": "error"
    },
    {
      "inputs": [],
      "name": "NFTDepositContract__NotOwner",
      "type": "error"
    },
    {
      "anonymous": false,
      "inputs": [
        {
          "indexed": true,
          "internalType": "address",
          "name": "owner",
          "type": "address"
        },
        {
          "indexed": true,
          "internalType": "address",
          "name": "approved",
          "type": "address"
        },
        {
          "indexed": true,
          "internalType": "uint256",
          "name": "tokenId",
          "type": "uint256"
        }
      ],
      "name": "Approval",
      "type": "event"
    },
    {
      "anonymous": false,
      "inputs": [
        {
          "indexed": true,
          "internalType": "address",
          "name": "owner",
          "type": "address"
        },
        {
          "indexed": true,
          "internalType": "address",
          "name": "operator",
          "type": "address"
        },
        {
          "indexed": false,
          "internalType": "bool",
          "name": "approved",
          "type": "bool"
        }
      ],
      "name": "ApprovalForAll",
      "type": "event"
    },
    {
      "anonymous": false,
      "inputs": [
        {
          "indexed": true,
          "internalType": "uint256",
          "name": "fee",
          "type": "uint256"
        }
      ],
      "name": "DepositFeeSet",
      "type": "event"
    },
    {
      "anonymous": false,
      "inputs": [
        {
          "indexed": true,
          "internalType": "address",
          "name": "from",
          "type": "address"
        },
        {
          "indexed": true,
          "internalType": "address",
          "name": "to",
          "type": "address"
        },
        {
          "indexed": true,
          "internalType": "uint256",
          "name": "tokenId",
          "type": "uint256"
        }
      ],
      "name": "Transfer",
      "type": "event"
    },
    {
      "anonymous": false,
      "inputs": [
        {
          "indexed": true,
          "internalType": "uint256",
          "name": "amount",
          "type": "uint256"
        },
        {
          "indexed": true,
          "internalType": "address",
          "name": "sender",
          "type": "address"
        },
        {
          "indexed": true,
          "internalType": "address",
          "name": "recipient",
          "type": "address"
        }
      ],
      "name": "ValueSent",
      "type": "event"
    },
    {
      "inputs": [],
      "name": "TOKEN_URI",
      "outputs": [
        {
          "internalType": "string",
          "name": "",
          "type": "string"
        }
      ],
      "stateMutability": "view",
      "type": "function"
    },
    {
      "inputs": [
        {
          "internalType": "address",
          "name": "to",
          "type": "address"
        },
        {
          "internalType": "uint256",
          "name": "tokenId",
          "type": "uint256"
        }
      ],
      "name": "approve",
      "outputs": [],
      "stateMutability": "nonpayable",
      "type": "function"
    },
    {
      "inputs": [
        {
          "internalType": "address",
          "name": "owner",
          "type": "address"
        }
      ],
      "name": "balanceOf",
      "outputs": [
        {
          "internalType": "uint256",
          "name": "",
          "type": "uint256"
        }
      ],
      "stateMutability": "view",
      "type": "function"
    },
    {
      "inputs": [
        {
          "internalType": "address",
          "name": "_to",
          "type": "address"
        },
        {
          "internalType": "uint256",
          "name": "_quantity",
          "type": "uint256"
        }
      ],
      "name": "claimTo",
      "outputs": [],
      "stateMutability": "payable",
      "type": "function"
    },
    {
      "inputs": [
        {
          "internalType": "address",
          "name": "owner",
          "type": "address"
        }
      ],
      "name": "getAddressBalance",
      "outputs": [
        {
          "internalType": "uint256",
          "name": "",
          "type": "uint256"
        }
      ],
      "stateMutability": "view",
      "type": "function"
    },
    {
      "inputs": [
        {
          "internalType": "uint256",
          "name": "tokenId",
          "type": "uint256"
        }
      ],
      "name": "getApproved",
      "outputs": [
        {
          "internalType": "address",
          "name": "",
          "type": "address"
        }
      ],
      "stateMutability": "view",
      "type": "function"
    },
    {
      "inputs": [],
      "name": "getDepositFee",
      "outputs": [
        {
          "internalType": "uint256",
          "name": "",
          "type": "uint256"
        }
      ],
      "stateMutability": "view",
      "type": "function"
    },
    {
      "inputs": [],
      "name": "getFeesGenerated",
      "outputs": [
        {
          "internalType": "uint256",
          "name": "",
          "type": "uint256"
        }
      ],
      "stateMutability": "view",
      "type": "function"
    },
    {
      "inputs": [
        {
          "internalType": "uint256",
          "name": "tokenId",
          "type": "uint256"
        }
      ],
      "name": "getOwnerTest",
      "outputs": [
        {
          "internalType": "address",
          "name": "",
          "type": "address"
        }
      ],
      "stateMutability": "view",
      "type": "function"
    },
    {
      "inputs": [],
      "name": "getTokenCounter",
      "outputs": [
        {
          "internalType": "uint256",
          "name": "",
          "type": "uint256"
        }
      ],
      "stateMutability": "view",
      "type": "function"
    },
    {
      "inputs": [],
      "name": "getUSDCBal",
      "outputs": [
        {
          "internalType": "uint256",
          "name": "",
          "type": "uint256"
        }
      ],
      "stateMutability": "view",
      "type": "function"
    },
    {
      "inputs": [
        {
          "internalType": "address",
          "name": "owner",
          "type": "address"
        },
        {
          "internalType": "address",
          "name": "operator",
          "type": "address"
        }
      ],
      "name": "isApprovedForAll",
      "outputs": [
        {
          "internalType": "bool",
          "name": "",
          "type": "bool"
        }
      ],
      "stateMutability": "view",
      "type": "function"
    },
    {
      "inputs": [],
      "name": "name",
      "outputs": [
        {
          "internalType": "string",
          "name": "",
          "type": "string"
        }
      ],
      "stateMutability": "view",
      "type": "function"
    },
    {
      "inputs": [
        {
          "internalType": "uint256",
          "name": "tokenId",
          "type": "uint256"
        }
      ],
      "name": "ownerOf",
      "outputs": [
        {
          "internalType": "address",
          "name": "",
          "type": "address"
        }
      ],
      "stateMutability": "view",
      "type": "function"
    },
    {
      "inputs": [
        {
          "internalType": "address",
          "name": "",
          "type": "address"
        }
      ],
      "name": "s_AdressToBalance",
      "outputs": [
        {
          "internalType": "uint256",
          "name": "",
          "type": "uint256"
        }
      ],
      "stateMutability": "view",
      "type": "function"
    },
    {
      "inputs": [
        {
          "internalType": "address",
          "name": "from",
          "type": "address"
        },
        {
          "internalType": "address",
          "name": "to",
          "type": "address"
        },
        {
          "internalType": "uint256",
          "name": "tokenId",
          "type": "uint256"
        }
      ],
      "name": "safeTransferFrom",
      "outputs": [],
      "stateMutability": "nonpayable",
      "type": "function"
    },
    {
      "inputs": [
        {
          "internalType": "address",
          "name": "from",
          "type": "address"
        },
        {
          "internalType": "address",
          "name": "to",
          "type": "address"
        },
        {
          "internalType": "uint256",
          "name": "tokenId",
          "type": "uint256"
        },
        {
          "internalType": "bytes",
          "name": "data",
          "type": "bytes"
        }
      ],
      "name": "safeTransferFrom",
      "outputs": [],
      "stateMutability": "nonpayable",
      "type": "function"
    },
    {
      "inputs": [
        {
          "internalType": "uint256",
          "name": "amount",
          "type": "uint256"
        },
        {
          "internalType": "address",
          "name": "sender",
          "type": "address"
        },
        {
          "internalType": "address",
          "name": "recipient",
          "type": "address"
        }
      ],
      "name": "sendTokens",
      "outputs": [],
      "stateMutability": "nonpayable",
      "type": "function"
    },
    {
      "inputs": [
        {
          "internalType": "address",
          "name": "operator",
          "type": "address"
        },
        {
          "internalType": "bool",
          "name": "approved",
          "type": "bool"
        }
      ],
      "name": "setApprovalForAll",
      "outputs": [],
      "stateMutability": "nonpayable",
      "type": "function"
    },
    {
      "inputs": [
        {
          "internalType": "uint256",
          "name": "depositFee",
          "type": "uint256"
        }
      ],
      "name": "setDepositFee",
      "outputs": [],
      "stateMutability": "nonpayable",
      "type": "function"
    },
    {
      "inputs": [
        {
          "internalType": "bytes4",
          "name": "interfaceId",
          "type": "bytes4"
        }
      ],
      "name": "supportsInterface",
      "outputs": [
        {
          "internalType": "bool",
          "name": "",
          "type": "bool"
        }
      ],
      "stateMutability": "view",
      "type": "function"
    },
    {
      "inputs": [],
      "name": "symbol",
      "outputs": [
        {
          "internalType": "string",
          "name": "",
          "type": "string"
        }
      ],
      "stateMutability": "view",
      "type": "function"
    },
    {
      "inputs": [
        {
          "internalType": "uint256",
          "name": "tokenId",
          "type": "uint256"
        }
      ],
      "name": "tokenURI",
      "outputs": [
        {
          "internalType": "string",
          "name": "",
          "type": "string"
        }
      ],
      "stateMutability": "view",
      "type": "function"
    },
    {
      "inputs": [
        {
          "internalType": "address",
          "name": "from",
          "type": "address"
        },
        {
          "internalType": "address",
          "name": "to",
          "type": "address"
        },
        {
          "internalType": "uint256",
          "name": "tokenId",
          "type": "uint256"
        }
      ],
      "name": "transferFrom",
      "outputs": [],
      "stateMutability": "nonpayable",
      "type": "function"
    },
    {
      "inputs": [],
      "name": "withdrawFees",
      "outputs": [],
      "stateMutability": "nonpayable",
      "type": "function"
    }
  ],
  "bytecode": "0x60c0604052600a6009553480156200001657600080fd5b50604051620036b3380380620036b383398181016040528101906200003c9190620002b6565b6040518060400160405280600d81526020017f457468657265616c2043617264000000000000000000000000000000000000008152506040518060400160405280600481526020017f43415244000000000000000000000000000000000000000000000000000000008152508160009080519060200190620000c092919062000161565b508060019080519060200190620000d992919062000161565b5050506000600681905550816007819055508073ffffffffffffffffffffffffffffffffffffffff1660a08173ffffffffffffffffffffffffffffffffffffffff1660601b815250503373ffffffffffffffffffffffffffffffffffffffff1660808173ffffffffffffffffffffffffffffffffffffffff1660601b81525050505062000362565b8280546200016f906200032c565b90600052602060002090601f016020900481019282620001935760008555620001df565b82601f10620001ae57805160ff1916838001178555620001df565b82800160010185558215620001df579182015b82811115620001de578251825591602001919060010190620001c1565b5b509050620001ee9190620001f2565b5090565b5b808211156200020d576000816000905550600101620001f3565b5090565b600080fd5b6000819050919050565b6200022b8162000216565b81146200023757600080fd5b50565b6000815190506200024b8162000220565b92915050565b600073ffffffffffffffffffffffffffffffffffffffff82169050919050565b60006200027e8262000251565b9050919050565b620002908162000271565b81146200029c57600080fd5b50565b600081519050620002b08162000285565b92915050565b60008060408385031215620002d057620002cf62000211565b5b6000620002e0858286016200023a565b9250506020620002f3858286016200029f565b9150509250929050565b7f4e487b7100000000000000000000000000000000000000000000000000000000600052602260045260246000fd5b600060028204905060018216806200034557607f821691505b602082108114156200035c576200035b620002fd565b5b50919050565b60805160601c60a05160601c613302620003b16000396000818161090401528181610c2d01528181610f7001526112dd015260008181610b5b01528181610d1d0152610dd901526133026000f3fe6080604052600436106101655760003560e01c80635fbef867116100d157806395d89b411161008a578063b88d4fde11610064578063b88d4fde14610540578063c87b56dd14610569578063e125232e146105a6578063e985e9c5146105d157610165565b806395d89b41146104c1578063a22cb465146104ec578063b419fda91461051557610165565b80635fbef8671461038b5780636352211e146103b457806365a8816a146103f15780636e02007d1461042e57806370a082311461045957806378ce90351461049657610165565b80631204fe0c116101235780631204fe0c146102a057806323b872dd146102bc57806335046722146102e557806342842e0e14610322578063476343ee1461034b578063490ae2101461036257610165565b8062b404a21461016a57806301ffc9a7146101a757806306fdde03146101e4578063081812fc1461020f578063095ea7b31461024c5780630de705b514610275575b600080fd5b34801561017657600080fd5b50610191600480360381019061018c919061222e565b61060e565b60405161019e9190612274565b60405180910390f35b3480156101b357600080fd5b506101ce60048036038101906101c991906122e7565b610626565b6040516101db919061232f565b60405180910390f35b3480156101f057600080fd5b506101f9610708565b60405161020691906123e3565b60405180910390f35b34801561021b57600080fd5b5061023660048036038101906102319190612431565b61079a565b604051610243919061246d565b60405180910390f35b34801561025857600080fd5b50610273600480360381019061026e9190612488565b6107e0565b005b34801561028157600080fd5b5061028a6108f8565b6040516102979190612274565b60405180910390f35b6102ba60048036038101906102b59190612488565b610902565b005b3480156102c857600080fd5b506102e360048036038101906102de91906124c8565b610a90565b005b3480156102f157600080fd5b5061030c6004803603810190610307919061222e565b610af0565b6040516103199190612274565b60405180910390f35b34801561032e57600080fd5b50610349600480360381019061034491906124c8565b610b39565b005b34801561035757600080fd5b50610360610b59565b005b34801561036e57600080fd5b5061038960048036038101906103849190612431565b610d1b565b005b34801561039757600080fd5b506103b260048036038101906103ad919061251b565b610dd7565b005b3480156103c057600080fd5b506103db60048036038101906103d69190612431565b6110ba565b6040516103e8919061246d565b60405180910390f35b3480156103fd57600080fd5b5061041860048036038101906104139190612431565b611141565b604051610425919061246d565b60405180910390f35b34801561043a57600080fd5b50610443611153565b6040516104509190612274565b60405180910390f35b34801561046557600080fd5b50610480600480360381019061047b919061222e565b61115d565b60405161048d9190612274565b60405180910390f35b3480156104a257600080fd5b506104ab611215565b6040516104b891906123e3565b60405180910390f35b3480156104cd57600080fd5b506104d6611231565b6040516104e391906123e3565b60405180910390f35b3480156104f857600080fd5b50610513600480360381019061050e919061259a565b6112c3565b005b34801561052157600080fd5b5061052a6112d9565b6040516105379190612274565b60405180910390f35b34801561054c57600080fd5b506105676004803603810190610562919061270f565b611389565b005b34801561057557600080fd5b50610590600480360381019061058b9190612431565b6113eb565b60405161059d91906123e3565b60405180910390f35b3480156105b257600080fd5b506105bb611455565b6040516105c89190612274565b60405180910390f35b3480156105dd57600080fd5b506105f860048036038101906105f39190612792565b61145f565b604051610605919061232f565b60405180910390f35b600a6020528060005260406000206000915090505481565b60007f80ac58cd000000000000000000000000000000000000000000000000000000007bffffffffffffffffffffffffffffffffffffffffffffffffffffffff1916827bffffffffffffffffffffffffffffffffffffffffffffffffffffffff191614806106f157507f5b5e139f000000000000000000000000000000000000000000000000000000007bffffffffffffffffffffffffffffffffffffffffffffffffffffffff1916827bffffffffffffffffffffffffffffffffffffffffffffffffffffffff1916145b806107015750610700826114f3565b5b9050919050565b60606000805461071790612801565b80601f016020809104026020016040519081016040528092919081815260200182805461074390612801565b80156107905780601f1061076557610100808354040283529160200191610790565b820191906000526020600020905b81548152906001019060200180831161077357829003601f168201915b5050505050905090565b60006107a58261155d565b6004600083815260200190815260200160002060009054906101000a900473ffffffffffffffffffffffffffffffffffffffff169050919050565b60006107eb826110ba565b90508073ffffffffffffffffffffffffffffffffffffffff168373ffffffffffffffffffffffffffffffffffffffff16141561085c576040517f08c379a0000000000000000000000000000000000000000000000000000000008152600401610853906128a5565b60405180910390fd5b8073ffffffffffffffffffffffffffffffffffffffff1661087b6115a8565b73ffffffffffffffffffffffffffffffffffffffff1614806108aa57506108a9816108a46115a8565b61145f565b5b6108e9576040517f08c379a00000000000000000000000000000000000000000000000000000000081526004016108e090612937565b60405180910390fd5b6108f383836115b0565b505050565b6000600754905090565b7f000000000000000000000000000000000000000000000000000000000000000073ffffffffffffffffffffffffffffffffffffffff166323b872dd3330846040518463ffffffff1660e01b815260040161095f93929190612957565b602060405180830381600087803b15801561097957600080fd5b505af115801561098d573d6000803e3d6000fd5b505050506040513d601f19601f820116820180604052508101906109b191906129a3565b6109f0576040517f08c379a00000000000000000000000000000000000000000000000000000000081526004016109e790612a1c565b60405180910390fd5b6109fc82600654611669565b600060075482610a0c9190612a9a565b90508060086000828254610a209190612acb565b925050819055508082610a339190612b21565b600a60008573ffffffffffffffffffffffffffffffffffffffff1673ffffffffffffffffffffffffffffffffffffffff168152602001908152602001600020819055506001600654610a859190612acb565b600681905550505050565b610aa1610a9b6115a8565b82611687565b610ae0576040517f08c379a0000000000000000000000000000000000000000000000000000000008152600401610ad790612bc7565b60405180910390fd5b610aeb83838361171c565b505050565b6000600a60008373ffffffffffffffffffffffffffffffffffffffff1673ffffffffffffffffffffffffffffffffffffffff168152602001908152602001600020549050919050565b610b5483838360405180602001604052806000815250611389565b505050565b7f000000000000000000000000000000000000000000000000000000000000000073ffffffffffffffffffffffffffffffffffffffff163373ffffffffffffffffffffffffffffffffffffffff1614610bde576040517f0e90abbe00000000000000000000000000000000000000000000000000000000815260040160405180910390fd5b600060085411610c23576040517f08c379a0000000000000000000000000000000000000000000000000000000008152600401610c1a90612c33565b60405180910390fd5b60006008819055507f000000000000000000000000000000000000000000000000000000000000000073ffffffffffffffffffffffffffffffffffffffff1663a9059cbb336008546040518363ffffffff1660e01b8152600401610c88929190612c53565b602060405180830381600087803b158015610ca257600080fd5b505af1158015610cb6573d6000803e3d6000fd5b505050506040513d601f19601f82011682018060405250810190610cda91906129a3565b610d19576040517f08c379a0000000000000000000000000000000000000000000000000000000008152600401610d1090612a1c565b60405180910390fd5b565b7f000000000000000000000000000000000000000000000000000000000000000073ffffffffffffffffffffffffffffffffffffffff163373ffffffffffffffffffffffffffffffffffffffff1614610da0576040517f0e90abbe00000000000000000000000000000000000000000000000000000000815260040160405180910390fd5b80600781905550807f12865465a7036a0232cbf9fb63ce880a3ee54f702775fe7abbc3c416e7968cd560405160405180910390a250565b7f000000000000000000000000000000000000000000000000000000000000000073ffffffffffffffffffffffffffffffffffffffff163373ffffffffffffffffffffffffffffffffffffffff1614610e5c576040517f0e90abbe00000000000000000000000000000000000000000000000000000000815260040160405180910390fd5b60008311610e9f576040517f08c379a0000000000000000000000000000000000000000000000000000000008152600401610e9690612cc8565b60405180910390fd5b82600a60008473ffffffffffffffffffffffffffffffffffffffff1673ffffffffffffffffffffffffffffffffffffffff168152602001908152602001600020541015610f18576040517fbc6d4aff00000000000000000000000000000000000000000000000000000000815260040160405180910390fd5b82600a60008473ffffffffffffffffffffffffffffffffffffffff1673ffffffffffffffffffffffffffffffffffffffff1681526020019081526020016000206000828254610f679190612b21565b925050819055507f000000000000000000000000000000000000000000000000000000000000000073ffffffffffffffffffffffffffffffffffffffff1663a9059cbb82856040518363ffffffff1660e01b8152600401610fc9929190612c53565b602060405180830381600087803b158015610fe357600080fd5b505af1158015610ff7573d6000803e3d6000fd5b505050506040513d601f19601f8201168201806040525081019061101b91906129a3565b61105a576040517f08c379a000000000000000000000000000000000000000000000000000000000815260040161105190612a1c565b60405180910390fd5b8073ffffffffffffffffffffffffffffffffffffffff168273ffffffffffffffffffffffffffffffffffffffff16847fa082007651b1bc7e75f9e587f8a09988a1150a8c3e0e72423c2bf093450d982060405160405180910390a4505050565b6000806110c683611a16565b9050600073ffffffffffffffffffffffffffffffffffffffff168173ffffffffffffffffffffffffffffffffffffffff161415611138576040517f08c379a000000000000000000000000000000000000000000000000000000000815260040161112f90612d34565b60405180910390fd5b80915050919050565b600061114c826110ba565b9050919050565b6000600654905090565b60008073ffffffffffffffffffffffffffffffffffffffff168273ffffffffffffffffffffffffffffffffffffffff1614156111ce576040517f08c379a00000000000000000000000000000000000000000000000000000000081526004016111c590612dc6565b60405180910390fd5b600360008373ffffffffffffffffffffffffffffffffffffffff1673ffffffffffffffffffffffffffffffffffffffff168152602001908152602001600020549050919050565b6040518060600160405280603581526020016132986035913981565b60606001805461124090612801565b80601f016020809104026020016040519081016040528092919081815260200182805461126c90612801565b80156112b95780601f1061128e576101008083540402835291602001916112b9565b820191906000526020600020905b81548152906001019060200180831161129c57829003601f168201915b5050505050905090565b6112d56112ce6115a8565b8383611a53565b5050565b60007f000000000000000000000000000000000000000000000000000000000000000073ffffffffffffffffffffffffffffffffffffffff166370a08231306040518263ffffffff1660e01b8152600401611334919061246d565b60206040518083038186803b15801561134c57600080fd5b505afa158015611360573d6000803e3d6000fd5b505050506040513d601f19601f820116820180604052508101906113849190612dfb565b905090565b61139a6113946115a8565b83611687565b6113d9576040517f08c379a00000000000000000000000000000000000000000000000000000000081526004016113d090612bc7565b60405180910390fd5b6113e584848484611bc0565b50505050565b60606113f682611c1c565b611435576040517f08c379a000000000000000000000000000000000000000000000000000000000815260040161142c90612e9a565b60405180910390fd5b604051806060016040528060358152602001613298603591399050919050565b6000600854905090565b6000600560008473ffffffffffffffffffffffffffffffffffffffff1673ffffffffffffffffffffffffffffffffffffffff16815260200190815260200160002060008373ffffffffffffffffffffffffffffffffffffffff1673ffffffffffffffffffffffffffffffffffffffff16815260200190815260200160002060009054906101000a900460ff16905092915050565b60007f01ffc9a7000000000000000000000000000000000000000000000000000000007bffffffffffffffffffffffffffffffffffffffffffffffffffffffff1916827bffffffffffffffffffffffffffffffffffffffffffffffffffffffff1916149050919050565b61156681611c1c565b6115a5576040517f08c379a000000000000000000000000000000000000000000000000000000000815260040161159c90612d34565b60405180910390fd5b50565b600033905090565b816004600083815260200190815260200160002060006101000a81548173ffffffffffffffffffffffffffffffffffffffff021916908373ffffffffffffffffffffffffffffffffffffffff160217905550808273ffffffffffffffffffffffffffffffffffffffff16611623836110ba565b73ffffffffffffffffffffffffffffffffffffffff167f8c5be1e5ebec7d5bd14f71427d1e84f3dd0314c0f7b2291e5b200ac8c7c3b92560405160405180910390a45050565b611683828260405180602001604052806000815250611c5d565b5050565b600080611693836110ba565b90508073ffffffffffffffffffffffffffffffffffffffff168473ffffffffffffffffffffffffffffffffffffffff1614806116d557506116d4818561145f565b5b8061171357508373ffffffffffffffffffffffffffffffffffffffff166116fb8461079a565b73ffffffffffffffffffffffffffffffffffffffff16145b91505092915050565b8273ffffffffffffffffffffffffffffffffffffffff1661173c826110ba565b73ffffffffffffffffffffffffffffffffffffffff1614611792576040517f08c379a000000000000000000000000000000000000000000000000000000000815260040161178990612f2c565b60405180910390fd5b600073ffffffffffffffffffffffffffffffffffffffff168273ffffffffffffffffffffffffffffffffffffffff161415611802576040517f08c379a00000000000000000000000000000000000000000000000000000000081526004016117f990612fbe565b60405180910390fd5b61180f8383836001611cb8565b8273ffffffffffffffffffffffffffffffffffffffff1661182f826110ba565b73ffffffffffffffffffffffffffffffffffffffff1614611885576040517f08c379a000000000000000000000000000000000000000000000000000000000815260040161187c90612f2c565b60405180910390fd5b6004600082815260200190815260200160002060006101000a81549073ffffffffffffffffffffffffffffffffffffffff02191690556001600360008573ffffffffffffffffffffffffffffffffffffffff1673ffffffffffffffffffffffffffffffffffffffff168152602001908152602001600020600082825403925050819055506001600360008473ffffffffffffffffffffffffffffffffffffffff1673ffffffffffffffffffffffffffffffffffffffff16815260200190815260200160002060008282540192505081905550816002600083815260200190815260200160002060006101000a81548173ffffffffffffffffffffffffffffffffffffffff021916908373ffffffffffffffffffffffffffffffffffffffff160217905550808273ffffffffffffffffffffffffffffffffffffffff168473ffffffffffffffffffffffffffffffffffffffff167fddf252ad1be2c89b69c2b068fc378daa952ba7f163c4a11628f55a4df523b3ef60405160405180910390a4611a118383836001611dde565b505050565b60006002600083815260200190815260200160002060009054906101000a900473ffffffffffffffffffffffffffffffffffffffff169050919050565b8173ffffffffffffffffffffffffffffffffffffffff168373ffffffffffffffffffffffffffffffffffffffff161415611ac2576040517f08c379a0000000000000000000000000000000000000000000000000000000008152600401611ab99061302a565b60405180910390fd5b80600560008573ffffffffffffffffffffffffffffffffffffffff1673ffffffffffffffffffffffffffffffffffffffff16815260200190815260200160002060008473ffffffffffffffffffffffffffffffffffffffff1673ffffffffffffffffffffffffffffffffffffffff16815260200190815260200160002060006101000a81548160ff0219169083151502179055508173ffffffffffffffffffffffffffffffffffffffff168373ffffffffffffffffffffffffffffffffffffffff167f17307eab39ab6107e8899845ad3d59bd9653f200f220920489ca2b5937696c3183604051611bb3919061232f565b60405180910390a3505050565b611bcb84848461171c565b611bd784848484611de4565b611c16576040517f08c379a0000000000000000000000000000000000000000000000000000000008152600401611c0d906130bc565b60405180910390fd5b50505050565b60008073ffffffffffffffffffffffffffffffffffffffff16611c3e83611a16565b73ffffffffffffffffffffffffffffffffffffffff1614159050919050565b611c678383611f7b565b611c746000848484611de4565b611cb3576040517f08c379a0000000000000000000000000000000000000000000000000000000008152600401611caa906130bc565b60405180910390fd5b505050565b6001811115611dd857600073ffffffffffffffffffffffffffffffffffffffff168473ffffffffffffffffffffffffffffffffffffffff1614611d4c5780600360008673ffffffffffffffffffffffffffffffffffffffff1673ffffffffffffffffffffffffffffffffffffffff1681526020019081526020016000206000828254611d449190612b21565b925050819055505b600073ffffffffffffffffffffffffffffffffffffffff168373ffffffffffffffffffffffffffffffffffffffff1614611dd75780600360008573ffffffffffffffffffffffffffffffffffffffff1673ffffffffffffffffffffffffffffffffffffffff1681526020019081526020016000206000828254611dcf9190612acb565b925050819055505b5b50505050565b50505050565b6000611e058473ffffffffffffffffffffffffffffffffffffffff16612199565b15611f6e578373ffffffffffffffffffffffffffffffffffffffff1663150b7a02611e2e6115a8565b8786866040518563ffffffff1660e01b8152600401611e509493929190613131565b602060405180830381600087803b158015611e6a57600080fd5b505af1925050508015611e9b57506040513d601f19601f82011682018060405250810190611e989190613192565b60015b611f1e573d8060008114611ecb576040519150601f19603f3d011682016040523d82523d6000602084013e611ed0565b606091505b50600081511415611f16576040517f08c379a0000000000000000000000000000000000000000000000000000000008152600401611f0d906130bc565b60405180910390fd5b805181602001fd5b63150b7a0260e01b7bffffffffffffffffffffffffffffffffffffffffffffffffffffffff1916817bffffffffffffffffffffffffffffffffffffffffffffffffffffffff191614915050611f73565b600190505b949350505050565b600073ffffffffffffffffffffffffffffffffffffffff168273ffffffffffffffffffffffffffffffffffffffff161415611feb576040517f08c379a0000000000000000000000000000000000000000000000000000000008152600401611fe29061320b565b60405180910390fd5b611ff481611c1c565b15612034576040517f08c379a000000000000000000000000000000000000000000000000000000000815260040161202b90613277565b60405180910390fd5b612042600083836001611cb8565b61204b81611c1c565b1561208b576040517f08c379a000000000000000000000000000000000000000000000000000000000815260040161208290613277565b60405180910390fd5b6001600360008473ffffffffffffffffffffffffffffffffffffffff1673ffffffffffffffffffffffffffffffffffffffff16815260200190815260200160002060008282540192505081905550816002600083815260200190815260200160002060006101000a81548173ffffffffffffffffffffffffffffffffffffffff021916908373ffffffffffffffffffffffffffffffffffffffff160217905550808273ffffffffffffffffffffffffffffffffffffffff16600073ffffffffffffffffffffffffffffffffffffffff167fddf252ad1be2c89b69c2b068fc378daa952ba7f163c4a11628f55a4df523b3ef60405160405180910390a4612195600083836001611dde565b5050565b6000808273ffffffffffffffffffffffffffffffffffffffff163b119050919050565b6000604051905090565b600080fd5b600080fd5b600073ffffffffffffffffffffffffffffffffffffffff82169050919050565b60006121fb826121d0565b9050919050565b61220b816121f0565b811461221657600080fd5b50565b60008135905061222881612202565b92915050565b600060208284031215612244576122436121c6565b5b600061225284828501612219565b91505092915050565b6000819050919050565b61226e8161225b565b82525050565b60006020820190506122896000830184612265565b92915050565b60007fffffffff0000000000000000000000000000000000000000000000000000000082169050919050565b6122c48161228f565b81146122cf57600080fd5b50565b6000813590506122e1816122bb565b92915050565b6000602082840312156122fd576122fc6121c6565b5b600061230b848285016122d2565b91505092915050565b60008115159050919050565b61232981612314565b82525050565b60006020820190506123446000830184612320565b92915050565b600081519050919050565b600082825260208201905092915050565b60005b83811015612384578082015181840152602081019050612369565b83811115612393576000848401525b50505050565b6000601f19601f8301169050919050565b60006123b58261234a565b6123bf8185612355565b93506123cf818560208601612366565b6123d881612399565b840191505092915050565b600060208201905081810360008301526123fd81846123aa565b905092915050565b61240e8161225b565b811461241957600080fd5b50565b60008135905061242b81612405565b92915050565b600060208284031215612447576124466121c6565b5b60006124558482850161241c565b91505092915050565b612467816121f0565b82525050565b6000602082019050612482600083018461245e565b92915050565b6000806040838503121561249f5761249e6121c6565b5b60006124ad85828601612219565b92505060206124be8582860161241c565b9150509250929050565b6000806000606084860312156124e1576124e06121c6565b5b60006124ef86828701612219565b935050602061250086828701612219565b92505060406125118682870161241c565b9150509250925092565b600080600060608486031215612534576125336121c6565b5b60006125428682870161241c565b935050602061255386828701612219565b925050604061256486828701612219565b9150509250925092565b61257781612314565b811461258257600080fd5b50565b6000813590506125948161256e565b92915050565b600080604083850312156125b1576125b06121c6565b5b60006125bf85828601612219565b92505060206125d085828601612585565b9150509250929050565b600080fd5b600080fd5b7f4e487b7100000000000000000000000000000000000000000000000000000000600052604160045260246000fd5b61261c82612399565b810181811067ffffffffffffffff8211171561263b5761263a6125e4565b5b80604052505050565b600061264e6121bc565b905061265a8282612613565b919050565b600067ffffffffffffffff82111561267a576126796125e4565b5b61268382612399565b9050602081019050919050565b82818337600083830152505050565b60006126b26126ad8461265f565b612644565b9050828152602081018484840111156126ce576126cd6125df565b5b6126d9848285612690565b509392505050565b600082601f8301126126f6576126f56125da565b5b813561270684826020860161269f565b91505092915050565b60008060008060808587031215612729576127286121c6565b5b600061273787828801612219565b945050602061274887828801612219565b93505060406127598782880161241c565b925050606085013567ffffffffffffffff81111561277a576127796121cb565b5b612786878288016126e1565b91505092959194509250565b600080604083850312156127a9576127a86121c6565b5b60006127b785828601612219565b92505060206127c885828601612219565b9150509250929050565b7f4e487b7100000000000000000000000000000000000000000000000000000000600052602260045260246000fd5b6000600282049050600182168061281957607f821691505b6020821081141561282d5761282c6127d2565b5b50919050565b7f4552433732313a20617070726f76616c20746f2063757272656e74206f776e6560008201527f7200000000000000000000000000000000000000000000000000000000000000602082015250565b600061288f602183612355565b915061289a82612833565b604082019050919050565b600060208201905081810360008301526128be81612882565b9050919050565b7f4552433732313a20617070726f76652063616c6c6572206973206e6f7420746f60008201527f6b656e206f776e6572206f7220617070726f76656420666f7220616c6c000000602082015250565b6000612921603d83612355565b915061292c826128c5565b604082019050919050565b6000602082019050818103600083015261295081612914565b9050919050565b600060608201905061296c600083018661245e565b612979602083018561245e565b6129866040830184612265565b949350505050565b60008151905061299d8161256e565b92915050565b6000602082840312156129b9576129b86121c6565b5b60006129c78482850161298e565b91505092915050565b7f55534443207472616e73666572206661696c6564000000000000000000000000600082015250565b6000612a06601483612355565b9150612a11826129d0565b602082019050919050565b60006020820190508181036000830152612a35816129f9565b9050919050565b7f4e487b7100000000000000000000000000000000000000000000000000000000600052601260045260246000fd5b7f4e487b7100000000000000000000000000000000000000000000000000000000600052601160045260246000fd5b6000612aa58261225b565b9150612ab08361225b565b925082612ac057612abf612a3c565b5b828204905092915050565b6000612ad68261225b565b9150612ae18361225b565b9250827fffffffffffffffffffffffffffffffffffffffffffffffffffffffffffffffff03821115612b1657612b15612a6b565b5b828201905092915050565b6000612b2c8261225b565b9150612b378361225b565b925082821015612b4a57612b49612a6b565b5b828203905092915050565b7f4552433732313a2063616c6c6572206973206e6f7420746f6b656e206f776e6560008201527f72206f7220617070726f76656400000000000000000000000000000000000000602082015250565b6000612bb1602d83612355565b9150612bbc82612b55565b604082019050919050565b60006020820190508181036000830152612be081612ba4565b9050919050565b7f4e6f20466565732047656e657261746564000000000000000000000000000000600082015250565b6000612c1d601183612355565b9150612c2882612be7565b602082019050919050565b60006020820190508181036000830152612c4c81612c10565b9050919050565b6000604082019050612c68600083018561245e565b612c756020830184612265565b9392505050565b7f53656e642056616c756520546f6f204c6f770000000000000000000000000000600082015250565b6000612cb2601283612355565b9150612cbd82612c7c565b602082019050919050565b60006020820190508181036000830152612ce181612ca5565b9050919050565b7f4552433732313a20696e76616c696420746f6b656e2049440000000000000000600082015250565b6000612d1e601883612355565b9150612d2982612ce8565b602082019050919050565b60006020820190508181036000830152612d4d81612d11565b9050919050565b7f4552433732313a2061646472657373207a65726f206973206e6f74206120766160008201527f6c6964206f776e65720000000000000000000000000000000000000000000000602082015250565b6000612db0602983612355565b9150612dbb82612d54565b604082019050919050565b60006020820190508181036000830152612ddf81612da3565b9050919050565b600081519050612df581612405565b92915050565b600060208284031215612e1157612e106121c6565b5b6000612e1f84828501612de6565b91505092915050565b7f4552433732314d657461646174613a2055524920717565727920666f72206e6f60008201527f6e6578697374656e7420746f6b656e0000000000000000000000000000000000602082015250565b6000612e84602f83612355565b9150612e8f82612e28565b604082019050919050565b60006020820190508181036000830152612eb381612e77565b9050919050565b7f4552433732313a207472616e736665722066726f6d20696e636f72726563742060008201527f6f776e6572000000000000000000000000000000000000000000000000000000602082015250565b6000612f16602583612355565b9150612f2182612eba565b604082019050919050565b60006020820190508181036000830152612f4581612f09565b9050919050565b7f4552433732313a207472616e7366657220746f20746865207a65726f2061646460008201527f7265737300000000000000000000000000000000000000000000000000000000602082015250565b6000612fa8602483612355565b9150612fb382612f4c565b604082019050919050565b60006020820190508181036000830152612fd781612f9b565b9050919050565b7f4552433732313a20617070726f766520746f2063616c6c657200000000000000600082015250565b6000613014601983612355565b915061301f82612fde565b602082019050919050565b6000602082019050818103600083015261304381613007565b9050919050565b7f4552433732313a207472616e7366657220746f206e6f6e20455243373231526560008201527f63656976657220696d706c656d656e7465720000000000000000000000000000602082015250565b60006130a6603283612355565b91506130b18261304a565b604082019050919050565b600060208201905081810360008301526130d581613099565b9050919050565b600081519050919050565b600082825260208201905092915050565b6000613103826130dc565b61310d81856130e7565b935061311d818560208601612366565b61312681612399565b840191505092915050565b6000608082019050613146600083018761245e565b613153602083018661245e565b6131606040830185612265565b818103606083015261317281846130f8565b905095945050505050565b60008151905061318c816122bb565b92915050565b6000602082840312156131a8576131a76121c6565b5b60006131b68482850161317d565b91505092915050565b7f4552433732313a206d696e7420746f20746865207a65726f2061646472657373600082015250565b60006131f5602083612355565b9150613200826131bf565b602082019050919050565b60006020820190508181036000830152613224816131e8565b9050919050565b7f4552433732313a20746f6b656e20616c7265616479206d696e74656400000000600082015250565b6000613261601c83612355565b915061326c8261322b565b602082019050919050565b6000602082019050818103600083015261329081613254565b905091905056fe697066733a2f2f516d4e614c463141586771317a6d42416569706f5673525736626377347738616178397473464a62626763314369a26469706673582212207a2b0e6ac7623c94879505371701cf0de57ec4805eb217661b06416f06813ad864736f6c63430008080033",
  "linkReferences": {},
  "deployedLinkReferences": {}
}